:020000040800F2
:10000000E8110020D50000086D450008853600087D
:1000100000000000000000000000000000000000E0
:10002000000000000000000000000000AB670008B6
:100030000000000000000000A1500008957E0008AC
:10004000E7000008E700000857570008E70000082D
:10005000E70000083510000845100008551000089A
:10006000E7000008E7000008E7000008E7000008D4
:10007000E7000008E7000008E7000008E7000008C4
:10008000E7000008E7000008E700000800000000A3
:10009000E7000008E7000008E7000008E7000008A4
:1000A000E7000008E7000008E7000008E700000894
:1000B00023850008E7000008E7000008E7000008C3
:1000C0000348854600F020FD0048004729950008B8
:1000D000E81100200448804704480047FEE7FEE797
:1000E000FEE7FEE7FEE7FEE7297F0008C100000803
:1000F00030B50B46014600202022012409E00D46C0
:10010000D5409D4205D31D469540491B2546954047
:1001100040191546521E002DF1DC30BD70B500248B
:100120002546002801DA01244042002901DA012590
:100130004942FFF7DDFFAC4200D04042002C00D026
:10014000494270BDF0B51FB40646002082B0054696
:100150004024019100901BE0019922460F46304651
:1001600000F09CFB049A059B801A994110D310461D
:100170001946224600F082FB361A8F41019722462B
:1001800001200021009F00F079FB38184D410090BC
:100190002046641E0028DFDC019B00982946324679
:1001A00007B0F0BD03460B439B0703D009E008C925
:1001B000121F08C0042AFAD203E00B780370401C17
:1001C000491C521EF9D27047D2B201E00270401CA5
:1001D000491EFBD270470022F6E710B513460A46C7
:1001E00004461946FFF7F0FF204610BD0321001D0D
:1001F000401E037812021A43491EF9D51046704773
:10020000F8B502464A40D40F42004B0052085B0842
:100210009A4202D20246084611464A0023D0C30D34
:100220004A00DDB2120EAD1A202D35DA4902012640
:10023000490AF6058A19002C00D0524220214F1B92
:100240001146B9402A411018C20D9A4221D0002C03
:1002500017D0012D08DCDA05801AD20F8019D207D9
:10026000DBB200F047FBF8BDDA05801A012340003D
:100270001B06C01880185A428018CA0F1043490044
:1002800007E04908C2071143DA05801A80194008BF
:10029000801800F027FBF8BD61000122511A001BF5
:1002A000F7E70122D2075140AAE70122D2075040C6
:1002B000A6E7024670B54A40D30FDB0740002DD0B9
:1002C0004A002AD0010E140E000212020919400A37
:1002D000520A8418E50104465443000A120A2E0407
:1002E0005043A4194219200CC543AA18120C012529
:1002F000AD03521C521912047F39240400D0521C41
:10030000104301D44000491EC2B20C06C009201897
:10031000401C4008802A02D003E0002070BD400845
:100320004000002900DA0020184370BD70B5024675
:100330004A40D50F40004A00ED0740085208002807
:1003400014D0002A12D0C40DD30D41020120C005E3
:100350005202490A520AE41A091812187D349142CD
:1003600001D3641C00E04900002C01DA002070BDBC
:100370000023914201D3891A034340084900002811
:10038000F7D100290AD0914202D10121C90705E025
:10039000914201D2012101E00121C943E005C018C9
:1003A000401900F09FFA70BDF0B507460846584066
:1003B00087B0C00F049048000E4659004008490815
:1003C000BC1A884105D2384631461E4617460B46B0
:1003D00002465800400810434CD0300D03904005B1
:1003E0005900400D490D0590401A0290402872DADC
:1003F00018030121000B090508430190049800929D
:10040000002805D0019952420020884100920190B5
:10041000029840210A1A0199009800F02FFA054627
:100420000C466B4607CB00F04AFAC0197141039A9B
:100430000E0D0023D71756401A467A40164344D073
:10044000049A002A2DD0029A012A039A15DC12057B
:10045000C01A914101263605001C7141D20F059E3C
:10046000D2070093019202962A46234600F088FAAA
:1004700007B0F0BD38463146FAE71605224A0F4666
:10048000B218C01AB74101210905001C4F410018DC
:100490007F41114618187941E20F10436D196441EC
:1004A00013E0E2076D0815436408C2071443039A7A
:1004B00001261205C01A91413605001C7141CE0774
:1004C000400830434908C01851412A46234600F0ED
:1004D0004AFACDE7FFE7049801224000C117121A3B
:1004E00000238B4104983146C417381AA141EEE726
:1004F00030B40124E407634030BC55E730B4012434
:10050000E407614030BC4FE70000E0FFF0B51FB4E6
:1005100088B00B990998002448400999C00F4900F8
:1005200049080991C0070B990090490049080B91AF
:1005300009990898A64608431CD00B990A980843C5
:1005400018D0099801244000420D4800410D099837
:1005500024050003000B204309900B980003000BB7
:1005600020430B9050181C4940180022019014465B
:10057000104605E0002001460DB0F0BD032801DA69
:10058000034600E003239C46C11A0AAE0AE05F005E
:1005900008ADED5B4F00F75B7D430027AA187C4157
:1005A000491C5B1E6145F2DD410004AB5A52210437
:1005B000120C0A43240C401C0828DFDB019802902F
:1005C0000099704601910090059B049A079906983E
:1005D00000F0D6F9D0E700000DFCFFFFF0B50C46A7
:1005E0005C4085B0E40FE40703944C0000266408E7
:1005F00059009446490802460296224321D0624699
:100600000A431ED06200570D4A000E032303550D06
:10061000012402462C492405781B1B0B360B40187D
:1006200023432643614600901C46501AB44103D32D
:100630000098401C009002E0921800985B4100284E
:1006400003DA0020014605B0F0BD002001210905B4
:100650000746864611E064461D46141BB54106D385
:100660006546521BB341744607430C43A646CD076B
:1006700040084908284392185B4105460D43EAD1DA
:100680001046184313D06046194650407140084345
:1006900006D06046101AB34106D20122002306E0BC
:1006A00000220123DB0702E00122D243531000980D
:1006B00074460105381C6141029C039D0019694183
:1006C00000F051F9BFE70000FD03000070B54B00DA
:1006D0005B0803430BD04B005C0D0026334665429C
:1006E000B341D417AD1AA34102DB0020014670BD0F
:1006F00012053018514170BD10B5002296231146E5
:1007000000F0F8F810BD00000EB5C217C10F504040
:10071000CA0740180021054B0293019200910A4636
:100720000B4600F02DF903B000BD000033040000BB
:100730000EB505490291002100910A460B46019130
:1007400000F01EF903B000BD33040000C20F4100E9
:1007500040020123400ADB05D207090EC0187F2999
:1007600001DA00207047962903DC9623591AC84005
:1007700001E096398840002AF4D040427047410099
:1007800040020122400AD205090E80187F2901DAB1
:1007900000207047962903DC9622511AC840704702
:1007A000963988407047000070B5CD0F4A000903A4
:1007B0000123090B1B0519430B4BED070024520DB8
:1007C0009A4201DA002070BD074B34339A4203DCB1
:1007D0009A1A00F063F802E00449511888402C434B
:1007E000F1D0404270BD0000FF030000CDFBFFFFD1
:1007F0004A0009030123090B1B051943094B10B5D6
:10080000520D9A4201DA002010BD064B34339A4251
:1008100003DC9A1A00F042F810BD034951188840D1
:1008200010BD0000FF030000CDFBFFFFC20FD20789
:10083000400040080BD0C10D0723DB01C91840025E
:100840000905400A1143C2084007114370470020C0
:100850000146704710B5002904DB0124E40740423B
:100860008C412146002B04DB1C460123DB0752424E
:10087000A341994200D1904210BD000010B5202A3A
:1008800004DB0146203A9140002010BD9140202316
:100890009C1A0346E3401943904010BD10B5202A2E
:1008A00004DB0846203AD040002110BD0B46D3405F
:1008B000D0402024A21A91400843194610BD10B51B
:1008C000202A06DBCB170846203A1041C1170B43FC
:1008D00006E00B461341D0402024A21A9140084361
:1008E000194610BD002904DA401C490001D1400816
:1008F0004000704770B40024050C05D1102400049A
:1009000002D1002921D01124050E01D100020834A2
:10091000050F01D10001241D850F01D18000A41C09
:10092000002801DB4000641C002908D020252E1B74
:100930000D46F540A14000D001212943084301069E
:100940001B1B000ADB1D02D5002070BC7047DB05B5
:10095000181880180029F8DA401C4900F5D170BC3D
:1009600040084000704710B5002B08DA0024401CF6
:10097000614192185B411A4301D14008400010BD0B
:10098000F0B51FB482B005460C0003D0084607F04E
:100990004FFE02E007F04CFE203002460090214658
:1009A0002846FFF76BFF049B059A04460F46184341
:1009B0001143084314D0184610431BD0009840211F
:1009C0000A1A18460599FFF769FF05460E46009A70
:1009D00005990498FFF752FF084305D0012004E071
:1009E0002046394607B0F0BD0020C11705430E432D
:1009F0002C43374300990E986305401A7905E40AA1
:100A000000220C43FD0A0A3002D500200146E9E726
:100A10000105101969410C9C0D9D00196941FFF7F2
:100A2000A2FFDFE7F8B50546480040080C4628431A
:100A300004D06000184A400D904201DD2846F8BD00
:100A400015493539884210DC88420BDB290D20031B
:100A500008432903014305D0E00F1049C00741189E
:100A60000020F8BD00200146F8BD161A4020821B68
:100A700028462146FFF702FF0746009128462146F7
:100A80003246FFF70BFF3A46009BFFF76CFF3246FA
:100A9000FFF7F4FEF8BD0000330400000000F03F53
:100AA0004A0009030123090B1B0519430A4B10B522
:100AB000520D9A4202DA0020014610BD064B343333
:100AC0009A4203DC9A1AFFF7E9FE10BD034BD218D5
:100AD000FFF7D4FE10BD0000FF030000CDFBFFFFB9
:100AE00010B5002904DB0124E40740428C41214673
:100AF000002B04DB1C460123DB075242A3418B423F
:100B000000D1824210BD0000064C0125064E05E0D2
:100B1000E36807CC2B430C3C98471034B442F7D31E
:100B2000FFF7D2FA64A0000884A0000870B58C1802
:100B30000578401C6B075B0F01D10378401C2A111C
:100B400006D10278401C03E006780E70401C491C58
:100B50005B1EF9D12B0705D40023521E0DD40B7058
:100B6000491CFAE70378401CCB1A921C03E01D785D
:100B70000D70491C5B1C521EF9D5A142D8D3002030
:100B800070BD000038B50446064805490068FFF707
:100B9000AFFA604300E0401E00900028FBD138BD52
:100BA00040420F0038000020F8B504460068816814
:100BB0008907890F012902D10168C90722D18168FB
:100BC000114A10261140012500290ED181682943C0
:100BD00081600120FFF7D6FF00F0AAFD07460CE078
:100BE00000F0A6FDC01B0A2807D9A06D3043A06500
:100BF000E06D2843E0650120F8BD20680068C0432F
:100C0000C007EDD10020F8BD17000080F0B589B015
:100C10000C46074610220021684608F0C5FC6946CC
:100C20002246084608F0ABF9684600788726010698
:100C3000684600290FDA00214318425C5B785200B5
:100C4000DB091A434254491C0F29F5DBC17B0246DC
:100C5000490071400DE000214318425C5B7852006E
:100C6000DB091A434254491C0F29F5DBC17B0246BC
:100C70004900D173E21DF9325169102912D001786F
:100C800009061BD500214518435C6D785B00ED0912
:100C90002B434354491C0F29F5DBC17B0346490014
:100CA000714019E000216218FF3201325378455C2F
:100CB000491C6B4053701029F5DB26E000214518D4
:100CC000435C6D785B00ED092B434354491C0F29AD
:100CD000F5DBC17B03464900D973E11D55698023CB
:100CE000FA316B54002500E05D5453695B1C53617D
:100CF000102BF9D300216218FF3201325378455C82
:100D0000491C6B4053701029F5DB00216218104616
:100D1000FF32E0300132437C5278491C5340437427
:100D20001029F3DB21461022F13104A808F024FC3D
:100D30002246394604A808F022F91022002168460C
:100D400008F032FC09B0F0BD10B5044610220021B5
:100D5000F13008F029FCFF20002115300151F0226C
:100D6000204608F021FC10BD0B4610B502461021AC
:100D7000184608F02FF910BDF0B50446FF308BB0CF
:100D80000F4601300890E11D4069FA310091103999
:100D900015460791002843D010210E1AAE4200D309
:100DA00016460099B2B24018394608F0E5FB08989B
:100DB000089940698019486110283AD3B54238D063
:100DC000002162181046FF32E0300132437C527835
:100DD000491C534043741029F3DB07992246084607
:100DE00008F0CDF8BF19AD1B1AE000202118E03142
:100DF0004A7C3B5C401C5A404A741028F6DB1022A7
:100E000002A8079908F0B8FB02A92246084608F094
:100E1000B6F8102202A9079808F0AEFB103D103773
:100E2000102DE2D8AAB23946009808F0A5FB089820
:100E300045610BB0F0BD0000F7B523498022497A27
:100E4000214B511ACDB2197A5B7A8026F31A0A46E1
:100E5000DEB2871E491C0124C9B2761E3B0007F092
:100E600016FC09060C060C120C06062B3000164B5D
:100E7000AA4224D2154CA05403E0134BB24215DB16
:100E80001DE019720DE0104EAD1EAA4217DA0F4B8D
:100E9000985401985854491CC8B202991954401CDE
:100EA0003072002408480121C17108E0074CA054A9
:100EB00001986054491CE4E7034BAA42F6D320464C
:100EC000FEBD0220FEBD0000AC000020AA080020EC
:100ED0007047000000231A4619460EC002490160FF
:100EE00002494160704700000D093E00AB03050058
:100EF0003EB50D4C6946E2780A70227D8A70C87052
:100F0000606B07F041F80190E06B0290E07D69466C
:100F10004870207C04F04FFC218CE06B4143081AA0
:100F2000A16D4018A0653EBDAC000020FFB50020BB
:100F300085B000900546064601900024770007988A
:100F40000121C05BA14008422FD028190C22039038
:100F50005043089A1258002A27D0059A002A01D136
:100F6000490722D008994118082002910856021119
:100F700000070117069840B204F02DFE002814D097
:100F80000298407A01010E980818C068002804D021
:100F90000198401CC0B2019007E0009A0F99039895
:100FA00088540098401CC0B20090641CE4B2102C1D
:100FB000C5D31035761CEDB2F6B2102DBDD3109905
:100FC00001980870009809B0F0BD000030B587B0F6
:100FD00014216846FFF7FFF80320019000200290DB
:100FE00003204003104C0090E06A01210843E062B6
:100FF000E06A0840059005206946000700F0D0FA35
:10100000E06A40084000E062606B0125AD052843BE
:10101000606300F09DFA00F0ABFA00F0A1FA606B9B
:10102000A843606307B030BD0010024010B502F065
:101030006FF810BD10B5012000F0A6FA022000F0F4
:10104000A3FA10BD10B5042000F09EFA082000F0AD
:101050009BFA10BD10B5102000F096FA202000F089
:1010600093FA402000F090FA802000F08DFAFF20E3
:10107000013000F089FA0120400200F085FA0120D9
:10108000800200F081FA0120C00200F07DFA012008
:10109000000300F079FA0120400300F075FA012006
:1010A000800300F071FA0120C00300F06DFA10BD5A
:1010B000FEE700000649800009580648091803D0D9
:1010C000C14203D0002070470120704702207047C2
:1010D000209D0008702FFCFF10B5094A0021CB00AD
:1010E000D458844207D89B189B68834203D9C80010
:1010F0008018007910BD491CC9B21529EFD3FEE74D
:10110000A49B0008F8B5054604464035287D002616
:10111000012808D001202875206881688907890F77
:1011200001290ED101E00220F8BD0168C90708D0ED
:10113000A06D20210843A0650126002028753046B7
:10114000F8BDA16DFF220132914302221143A16536
:10115000C1688907890F0091C16889088900C16049
:101160002068816892071143816000F0E1FA074628
:101170000EE000F0DDFAC01B0A2809D9A06D02219B
:10118000884310210843A065002028750120F8BD80
:10119000206880680028ECDB2068C168009A114351
:1011A000C160A06D80088000401CA065C5E70000FC
:1011B000F8B506460D464036317D01290DD0012196
:1011C000317501688A68520709D5816D2022114363
:1011D0008165002030750120F8BD0220F8BD204B4C
:1011E0006A68D80547109A421E4C8A6A2B681BD041
:1011F0005B035B0B1A438A622968490305D5A16822
:101200000143A1600A20FFF7BDFC2868800302D5D6
:10121000A0683843A0602868C0031DD5A0680121DC
:1012200009060843A06017E05B035B0B9A438A62E0
:101230002968490302D5A1688143A1602868800319
:1012400002D5A068B843A0602868C00304D5A1688F
:10125000012000068143A16000203075F8BD000028
:1012600001100000002701400068006C704700007A
:1012700070B5040006D0A06D264600254036002833
:1012800002D006E0012070BDE5653575204600F00E
:10129000D1F8A06DC00603D421688868400705D541
:1012A000A06D10210843A0653575EBE7A06DFF2206
:1012B0000132904302221043A06588688207920F92
:1012C0005A48012A02D10A68D2072BD10323626847
:1012D0009B079A4205D05B429A4202D05B009A4239
:1012E00009D10A69920092080A6121680A69636853
:1012F0001A430A610CE00A69920092080A61816847
:101300000F22920491438160816862681143816079
:101310002168CA6818239A43CA602168CA68A3680A
:101320001A43CA6081680122520691438160816834
:10133000228F52061143816020688168C90004D45D
:10134000816801221207114381602068C168384A10
:101350001140C1602169E068022923D000210843BF
:10136000216A226B4903520011430843616B084311
:10137000A16989030843E169C90308432168CA6870
:101380001043C860A06A0146FF39C23905D0E16A3E
:1013900008432168CA681043C860606A01210128B7
:1013A00002D00BE00421DAE7206A002823D0A06DE8
:1013B00020221043A065E06D0843E065206C012801
:1013C00020681FD00169C90703D001694908490095
:1013D000016120684169C908C9004161206841690B
:1013E000E26B11434161E565A06D80088000401CFF
:1013F000A065002070BD2068C26801231B041A4349
:10140000C260DBE70269FF239B009A430261206808
:101410000269636CE66C1A43A36C33431A4302619E
:10142000206802690A430261D3E7000000270140F7
:101430001902FEFF7047F8B504464069254640355D
:101440000E4608280BD02068C068C00709D0A06DE0
:1014500020210843A065002028750120F8BD082739
:1014600000E00C2700F064F9009011E0701C0FD030
:10147000002E05D000F05CF90099401AB04207D95F
:10148000A06D04210843A065002028750320F8BD45
:10149000206800683842E9D0A06D01214902084364
:1014A000A0652068C16809058A0F0C21002A1AD19D
:1014B000226A002A17D10268120714D582685307DE
:1014C0000122002B08DB43688B434360A06D1302AD
:1014D00098431043A06506E0A06D20231843A06543
:1014E000E06D1043E065A069002801D1206801602B
:1014F0000020F8BD70B504462168002089684907BE
:1015000021D425464035297D01291CD0012129758A
:10151000E169012904D02046FFF746FB002811D1DC
:10152000A16D0A4A1140FF2201321143A165002139
:10153000E165297522681C21116021688A680423ED
:101540001A438A6070BD022070BD0000FEF1FFFFEB
:10155000024841684908490041607047005801400D
:10156000024841680422914341607047005801409D
:10157000024841680222914341607047005801408F
:1015800010B501F02BFD10BD10B504494A690242A7
:1015900002D04861FFF7F4FF10BD000000040140D5
:1015A000F8B500230124A7E027469F403A4070D0B9
:1015B0004D68022D01D0122D14D1DD08AD002D187B
:1015C00000952D6A5E07AC46F50E0F26AE46AE407E
:1015D0006546B543AC460E697546AE4065462E433A
:1015E000009D2E624D68012D05D0022D03D0112DD6
:1015F00001D0122D16D185680326AC465D00AE469B
:10160000AE406546B543AC46CE687546AE406546CD
:101610002E43866046680D79BE43ED06ED0F9D4072
:101620003543456006685F000325BD40AE46AE43C6
:101630000D79B446AE07B60FBE4065462E43066030
:10164000C6687546AE438D68BD403543C5604D687C
:10165000ED0050D52B4D6E6B26436E639E082A4DD0
:10166000B6007519AC46AD689E07360F0F27B74018
:10167000BD4305273F07B84201D100271AE0234F99
:10168000B84201D1012715E0214FB84202D102270B
:1016900010E030E01F4FB84201D103270AE01E4F8F
:1016A000B84201D1042705E01C4FB84201D10527FB
:1016B00000E00627B7402F436546AF60184D2E68FF
:1016C0004F689643FF0300D516432E606E684F683F
:1016D0009643BF0300D516436E60AE684F689643CD
:1016E000FF0200D51643AE60EE684F689643BF0216
:1016F00000D51643EE605B1C0A681546DD4000D03D
:1017000052E7F8BD00100240000001400004005004
:1017100000080050000C005000100050001C005049
:1017200000040140002A01D0816170478162704746
:1017300001480068704700003C0000200248016832
:10174000491C0160704700003C00002010B50648AD
:101750000168022211430160032000F007F800F045
:1017600007F8002010BD0000002002400020704754
:1017700010B50848816B02041143816300F04EF8F4
:1017800000F044F80448016808221143016000F0A9
:1017900035F810BD0010024000200240C106C90EFD
:1017A00001208840014908607047000080E200E0A5
:1017B000C106C90E01208840014908607047000039
:1017C00000E100E005490968C206D20E0120904000
:1017D000014201D0012070470020704700E200E084
:1017E000C106C90E01208840014908607047000009
:1017F00000E200E010B502F0BBFE10BD0248016837
:1018000002151143016070470070004002480168F2
:1018100042151143016070470070004002480168A2
:10182000102291430160704700700040094B1A6814
:101830009208920002431A600748026904239A43FF
:101840000261012903D040BF20BF20BF704730BFD5
:10185000704700000070004000ED00E00A4B1A687D
:101860009208920002431A60084803690422134355
:101870000361012906D040BF20BF20BF0169914309
:101880000161704730BFF9E70070004000ED00E0F3
:10189000F8B5684C074601210020C903644E654A2B
:1018A0004034102F73D011DC012F75D0022F70D06F
:1018B000042F6FD0082F21D1E16803231B031940A7
:1018C00069D0BC026310A1427AD09EE003255A4B36
:1018D0002D04202F08D0402F32D0FF3F7F1E6BD029
:1018E00007263602B74209D12669246901272C4010
:1018F0003F04BC4203D1B2055AE00846F8BD0121BD
:1019000049048C4203D1B107F8D54C48F8BDAC422C
:10191000FCD111688903F9D5106803210905084035
:1019200001210905401A09D0401A05D0884201D189
:101930004348F8BD1846F8BD4248F8BD4248F8BDD6
:10194000E1680124A406214006D0A142F7D19168A4
:101950008907F4D53D48F8BD11688901FBD5D068E9
:10196000D16880023A4C000F245C0802810FD068D5
:10197000491CC00306D41068C00601D5184602E011
:10198000304600E033486043FEF7B2FBF8BD3FE06D
:1019900002E01DE02AE026E0E3689B079B0F0CD0E5
:1019A000022B0DD0012B10D0032BEFD12269920511
:1019B000002AA2DBEAE703E02EE000F0E7F9E5E722
:1019C00011684907E2D53046E0E700F0EFF9DDE7BE
:1019D000E3680C252B4006D0082BF1D0042BF4D063
:1019E0000C2BE3D0D2E700F0C1F9CFE7E368032581
:1019F000AD022B40F7D00127FF02BB42E0D07A10A6
:101A00009342E2D0AB42D1D0C0E79942DDD0BDE7EE
:101A1000916B4902E7D4B9E7E1682940E3D001239B
:101A20005B049942CCD05A109142CED0AEE7000070
:101A30000024F4000010024000093D0088900000DE
:101A400020A1070040420F0080841E00006CDC02D1
:101A5000CC9C000800127A00F8B504460068664D78
:101A6000810601D400057DD5634E0027403EB06B52
:101A7000C00004D4B06B31040843B06301275F4851
:101A80000168C90511D40168821511430160FFF78F
:101A90004FFE009005E0FFF74BFE0099401A6428C6
:101AA00044D856480068C005F5D5316803200005C4
:101AB000626801401040884205D10323A0681B05DD
:101AC0001840884208D09003800F032804D1306862
:101AD000800301D50120F8BD2869032109040840CD
:101AE00029D00A40824202D02278920606D4A26807
:101AF0000A4082421FD0208800051CD528692A6927
:101B000088430121C9040A432A612A698A432A6158
:101B10002861C0050FD5FFF70BFE009008E0FFF726
:101B200007FE0099411A3648814201D90320F8BDC9
:101B300028698005F3D561688803800F032805D1E3
:101B400032680005824301400A433260286903225B
:101B500061681204114008432861002F06D0B06B61
:101B6000012100E002E009078843B0632078C00744
:101B700005D0E868E168800880000843E8602078C4
:101B8000800705D5E8680C21884321690843E8608F
:101B90002078400706D5E8680321890288436169F7
:101BA0000843E8602078000706D5E86803210903A8
:101BB0008843A1690843E8602088C00506D5E86825
:101BC000032109048843E1690843E860207840065E
:101BD00006D5E868012189068843616A0843E86000
:101BE0002078000606D5E868032189048843216A25
:101BF0000843E8600020F8BD40100240007000403B
:101C000088130000F8B5054653480E460068C00723
:101C1000C00FB0420AD25048016849084900314318
:101C200001600068C007C00FB0426FD128784B4CEC
:101C3000800705D5E068F0218843A9680843E06083
:101C40002878C00752D06868022817D0032818D017
:101C50002168012818D08905002957DAE168890828
:101C600089000143E160FFF763FD696807460229C7
:101C700012D003291CD0012926D033E02168890322
:101C8000EAE721688901E7E74907E5E7FFF750FD43
:101C9000C11B3348814223D8E0680007800F022827
:101CA000F4D123E0FFF744FDC11B2D48814217D832
:101CB000E0680007800F0328F4D117E0FFF738FD34
:101CC000C11B274881420BD8E0680007800F01281C
:101CD000F4D10BE0FFF72CFDC11B2148814201D953
:101CE0000320F8BDE0680007800FF3D11A480168AF
:101CF000C907C90FB1420BD90168490849003143EE
:101D000001600068C007C00FB04201D00120F8BDDB
:101D10002878400706D5E068072109028843E9686A
:101D20000843E0602878000707D5E0680721C9026A
:101D300088432969C9000843E06000F037F8E1688A
:101D4000084A0906090F515CC8400749086003208A
:101D5000FFF70CFD0020F8BD0020024000100240FB
:101D600088130000BC9C0008380000200448054986
:101D70000068C968044A4905490F515CC84070476A
:101D80003800002000100240D59C00080448054996
:101D90000068C968044A8904490F515CC84070470B
:101DA0003800002000100240D59C000810B5184AE9
:101DB000D1680C20084004280BD0082810D00C282B
:101DC00010D050680004410F0120C003491C884016
:101DD00010BD1068C00601D50E4810BD0E4810BDDC
:101DE0000E4810BD88020E4B000F185C0902D36824
:101DF000890F491CDB0301D5084A05E01268D206A9
:101E000001D5044A00E0044A5043FEF771F910BDC1
:101E10000010024000093D000024F40000127A0086
:101E2000CC9C0008F8B504460078FF4DC0074CD0A4
:101E3000E8680007800F022807D0E8680007800FD5
:101E4000032809D1E868C00306D5286880033CD57B
:101E50006068002875D038E0012062680004824282
:101E600003D129680143296011E0052301211B04E6
:101E700089049A422A6802D10A432A60F1E7824320
:101E80002A602A68024000922868884328606068B7
:101E900000280DD0FFF74CFC0646E44F04E0FFF7A6
:101EA00047FC801BB8427DD828688003F7D50CE03A
:101EB000FFF73EFC0646DD4F04E0FFF739FC801BD0
:101EC000B842F0D828688003F7D42078800741D53D
:101ED000E8681F270007800F3F02012807D0E86845
:101EE0000007800F032809D1E868C00306D42868DA
:101EF000400717D5E068012823D113E0E0680028E7
:101F000017D029680922914301432960FFF710FC8B
:101F1000064604E0FFF70CFC801B0228C3D82868A3
:101F20004007F7D568682169B8430902084368602B
:101F300010E02868400840002860FFF7F9FB0646DB
:101F400005E090E0FFF7F4FB801B0228ABD828687F
:101F50004007F7D42078C00676D5E868B44E00076D
:101F6000800F0BD0E06900285DD02868FF21013187
:101F700008432860FFF7DCFB074644E0286880053B
:101F800002D5E06900286ED0606A696831408842F5
:101F900012D903F079FB0028AED16868616AB043BA
:101FA000084300E0E4E068606868218C0002000AF1
:101FB0000906084368600FE06968B143014369603E
:101FC0006868218C0002000A090608436860606A9C
:101FD00003F05AFB00288FD1606A410B0120C00337
:101FE000491C8840E968934A0906090F515CC840BA
:101FF000914908600320FFF7B9FB25E0FFF798FB44
:10200000C01B02288AD828688005F7D56868616AED
:10201000B043084368606868218C0002000A090622
:102020000843686010E02968FF200130814329607F
:10203000FFF77EFB064604E0FFF77AFB801B0228D1
:1020400084D828688005F7D420787C4E000723D5F3
:1020500060690028306910D0012108433061FFF722
:1020600067FB074605E009E1FFF762FBC01B02289A
:102070007ED830698007F7D50EE040084000306117
:10208000FFF756FB074604E0FFF752FBC01B022890
:102090006ED830698007F7D42078400761D5A86BE7
:1020A0000027C00005D4A86B012109070843A863D5
:1020B000012763480168C90511D4016882151143DD
:1020C0000160FFF735FB009005E0FFF731FB009959
:1020D000401A64284CD85A480068C005F5D5FF203E
:1020E000A2680130824203D131690143316111E0BC
:1020F00001218902002A07D005231B029A4203D13D
:1021000032690A433261EFE73269824332613069F2
:1021100088433061A06800280ED0FFF709FB0090CB
:1021200006E0FFF705FB0099411A404881421FD89D
:1021300030698005F5D50DE0FFF7FAFA009006E06A
:10214000FFF7F6FA0099411A3848814210D83069F1
:102150008005F5D4002F04D0A96B0120000781432E
:10216000A9632078800630D53649A0694A1400E07A
:102170007DE0002816D0AB6801200343AB606B6B99
:1021800003436B63086A10430862FFF7D1FA0646FF
:1021900004E0FFF7CDFA801B022868D8A868800702
:1021A000F7D512E0A86840084000A860086A90438C
:1021B0000862FFF7BDFA064604E0FFF7B9FA801B94
:1021C000022854D8A8688007F7D4A06A002853D002
:1021D000E9680907890F032950D00126360602282D
:1021E000286805D0B0432860FFF7A2FA044640E013
:1021F000B0432860FFF79CFA074604E0FFF798FA1F
:10220000C01B022833D828688001F7D4216BE06A0C
:10221000EA680843616BFD231B049A43114308439A
:10222000E860286830430FE0001002408813000087
:1022300000E00000BC9C0008380000204010024074
:1022400000700040000001402860FFF771FA04466A
:1022500004E0FFF76DFA001B022808D82868800107
:10226000F7D509E0FFF764FA001B022801D9032023
:10227000F8BD28688001F5D40020F8BD0120F8BD24
:1022800030B5014620310A78012A15D001220A70A2
:1022900002234B700468CA23636204685323636299
:1022A00003689C6820252C439C600068FF234362E0
:1022B0004A700020087030BD022030BD10B505F016
:1022C00085FE10BDF8B5054604462035287801285E
:1022D0001DD001202870022068702268CA20506238
:1022E000226853205062FF2001300026FF278142E0
:1022F0001CD121688A6882438A6020688168012233
:10230000120391438160FFF713FA009009E0022065
:10231000F8BDFFF70DFA0099411A7D20C0008142F7
:102320001BD82068C068C007F3D020E0206881680F
:102330000122520291438160206881681201914319
:102340008160FFF7F5F900900DE0FFF7F1F90099D2
:10235000411A7D20C000814205D9206847620320D0
:1023600068702E70F8BD2068C0688007EDD52068C1
:102370004762012068702E700020F8BDF0B50C4651
:10238000FF219C460131254640268F051D4B2035F7
:102390008A4204D161620168C869496C05E0012183
:1023A000490261620168086A896C8202920E227099
:1023B0004204520E62704206520EA270020C490490
:1023C0003240490CE27061608100890E297001463B
:1023D00039401840E1616061604600280FD12078E3
:1023E00003F08AF92070607803F086F96070A078B5
:1023F00003F082F9A070287803F07EF9287000209D
:10240000F0BD00008080808010B500680B464068F9
:10241000C021C94301400002000ECC04D870E40E74
:102420005C708C06A40E0904490F9C701970002A78
:102430000AD103F061F9D870587803F05DF958704B
:10244000987803F059F99870002010BD30B50B460C
:102450000168896A5960016809694904490C9960F1
:10246000006804680F482146014088024D04800E30
:1024700018706D0E49065D70490E99706102490E23
:1024800040242140D970002A0AD103F035F9187090
:10249000587803F031F95870987803F02DF9987056
:1024A000002030BD7F7F7F0070B5040005D0254639
:1024B00020356878002802D006E0012070BD002099
:1024C0002870204600F042F8022068702168CA2077
:1024D0004862216853204862204603F020F9FF211A
:1024E0000028206803D0416204206870E5E7826814
:1024F000154B1A408260226890686368A669184389
:1025000023693343184390602268E06810612068B3
:10251000026923891B041A4302612068C268802370
:102520009A43C2602068C26C92089200C264E26959
:10253000606902432068C36C1A43C2642068416228
:1025400001206870002070BDBFFF8FFF00B599B0FB
:102550000420009000200A90FF200130029068467D
:10256000FFF760FC002801D0FEF7A2FD20200E90AE
:10257000C0020F900EA8FFF76FFA002801D0FEF7F7
:1025800097FD08480169012292041143016100226C
:1025900011460220FFF72EF90220FFF709F919B0C2
:1025A00000BD000040100240FEB50646044620363D
:1025B00030780B46012842D0012030700220707024
:1025C00020681D46002720358068002A39D0400643
:1025D00055D5187803F090F8287803F08DF819781D
:1025E0009878090408435978DA78090212041143EB
:1025F0000843297809060843D969084359690843FB
:10260000054699695868084300902168CA204862C5
:10261000216853204862FF205A6A0130802182429B
:102620004AD122689368834393602268D068084047
:10263000FF388238D060FFF77BF8019029E0022054
:10264000FEBD400600D4DF70187803F05DF8020488
:10265000587803F059F800020243987803F054F8D0
:102660000243D87800040243287803F04DF80006AE
:102670000243D8690243586902431546C1E7DF7037
:10268000AAE7FFF755F80199411A7D20C000814261
:102690002AD82068C068C007F3D02068C5612168C7
:1026A0000098486420688168FF22013211438160EC
:1026B00020688168120130E02068826801235B0293
:1026C0009A4382602068C2680A401D495118C1605F
:1026D000FFF72EF801900EE0FFF72AF80199411A52
:1026E0007D20C000814206D92168FF204862032076
:1026F00070703770FEBD2068C0688007ECD5206818
:10270000056221680098886420688168012252026D
:10271000114381602068816812011143816009487A
:102720000268012149040A43026082680A43826008
:102730002168FF2048620120707037700020FEBDC4
:102740007FFDFFFF00040140F8B505460446203533
:1027500028780B46012815D00120287002206870C7
:102760005878002A10D002F0C7FF987802F0C4FF12
:10277000D8789E78000406435878197800024903F7
:10278000084316E00220F8BDC10603D5EF2108403A
:102790000A305870D87802F0B7FF0604587802F073
:1027A000B3FF00020643987802F0AEFF06431878A4
:1027B000400306432168CA204862216853204862CA
:1027C000204602F0ACFF0027002811D11048064037
:1027D000206846602068C16880229143C1602068FB
:1027E000806880060CD4204600F08CF8002807D0C2
:1027F0002168FF204862042068702F700120F8BD16
:102800002168FF204862012068702F700020F8BD09
:102810003FFFFF00F8B506460446203630780D46E7
:1028200001280ED00120307002207070206800272F
:102830008068002A07D040061AD5287802F05CFF8D
:1028400017E00220F8BD400600D4EF70287802F0AF
:102850005BFF0204687802F057FF00020243A87889
:1028600002F052FF0243E8780004024300920BE0BA
:10287000EF702978A878090408436978EA78090292
:1028800012041143084300902168CA20486221685D
:1028900053204862204602F042FF00281FD1184909
:1028A000009808402168086020688168012292042D
:1028B000914381602969E868084321688A68104368
:1028C00088602068C16880229143C1602068806868
:1028D00080060CD4204600F015F8002807D02168A7
:1028E000FF2048620420707037700120F8BD216815
:1028F000FF2048620120707037700020F8BD000092
:102900007F7F7F0070B504460068C168A0229143B4
:10291000C160FEF70DFF7D260546F60006E0FEF7D6
:1029200007FF401BB04201D9032070BD2068C0687A
:102930008006F4D5002070BD70B5040006D0254691
:102940004035687C0026002802D005E0012070BDDB
:102950002E74204600F032F8022068742068016866
:10296000402291430160A168606822690843E168E0
:1029700011430843616901220843A16952021140D1
:102980000843E1690843216A0843A16A08432168B2
:102990000860A0690421000C0840616A08432168AE
:1029A00048602168E06A08612068C169920091432B
:1029B000C161666501206874002070BD7047F8B57C
:1029C000044600276846078026464036707C01286A
:1029D00002D0707C22287ED100290CD0002A0AD097
:1029E000002B08D0307C012875D001203074707C19
:1029F000012802D003E00120F8BD32207074676521
:102A0000A263A387E3872163A386E386A764E764C1
:102A10000125A06A6D03A84207D120680168A94377
:102A20000160206801682943016020680168490647
:102A300003D401684022114301600121FF20E268B4
:102A4000C90205308A42616866D1002904D08142FA
:102A50000CD1E08E012809D1206B21680088C86064
:102A6000206B801C2063E08E401EE086E08E0028F4
:102A700043D1A06AA84246D120680168012212030E
:102A8000114301603FE02068C068A16B0880A06B23
:102A9000801CA063B0E0002202212046069B03F0C8
:102AA0002BFE00287DD1206B21680088C860206B38
:102AB000801C2063E08E401EE086E08E002808D156
:102AC000A06AA84205D120680168012212031143BF
:102AD0000160002200E0CCE001212046069B03F0CB
:102AE0000BFE00287FD12068C068A16B0880A06B16
:102AF000801CA063E08F401EE087E08E0028CAD1D2
:102B0000606800287BD1002201212046069B03F04B
:102B1000F3FD002867D1B6E7002904D081420BD12C
:102B2000E08E012808D1206B411C216321680078C8
:102B3000C860E08E401EE086E08E002845D1A06A85
:102B4000A84205D1206801680122120311430160E7
:102B5000002201212046069B03F0CEFD002842D131
:102B60002068C068A16B087046E000220221204660
:102B7000069B03F0C1FD002835D1206B411C216369
:102B800021680078C860E08E401EE086E08E002854
:102B90000AD1A06AA84207D120680268012109036E
:102BA00000E020E00A430260002201212046069B4B
:102BB00003F0A2FD002816D12068C268A06B411C5A
:102BC000A1630270E08F401EE087E08E0028CCD128
:102BD0006068002813D1002201212046069B03F0E3
:102BE0008BFD002802D00320F8BD08E02068C168F2
:102BF000A06B421CA2630170E08F401EE087A06AB8
:102C0000A8420FD1002201212046069B03F074FD4B
:102C1000002802D0606D02210EE02068C06869467D
:102C200008800888012280212046069B03F064FD6D
:102C3000002804D0606D202108436065D3E701209F
:102C40007074A06AA84211D120688168C943C9067E
:102C50000CD4616D0222114361650168A9430160D2
:102C600020680168294301603774C4E63774002086
:102C7000BAE70220B8E770B5040005D025466035F4
:102C8000687A002802D006E0012070BD002028727A
:102C9000204600F027F8242068722068016849085F
:102CA00049000160606A002802D0204605F05AFA07
:102CB000204605F0EDFA0128E7D020684168092296
:102CC000D20291434160206881682A229143816049
:102CD00020680168012211430160204605F0A8FA2E
:102CE00070BD000010B50448816B012252041143ED
:102CF000816306F065FE10BD00100240FFB5064678
:102D000004466036707A83B00D46202858D1002DD5
:102D10000CD00598002809D00120A1680003814249
:102D200007D12069002804D1E80702D0012007B0AC
:102D3000F0BD307A012843D0012030720020E066D7
:102D400021207072FEF7F4FC019027464037059869
:102D500038820598788218E0788A401E7882069832
:102D60000090002280212046019B05F0A9FB00284D
:102D700018D10120A1680003814202D120690028F6
:102D800012D02168287888626D1C788A0028E3D1E7
:102D900006980090002240212046019B05F090FB00
:102DA000002808D00320C2E728882168C005C00D8C
:102DB0008862AD1CE9E72020707200203072B6E70F
:102DC0000220B4E710B51248017800291ED1012273
:102DD000027011480F49016000210164C161D307ED
:102DE0008161436082638160C16001620723416247
:102DF000C3630261C1620422426101630748416BFF
:102E00004215114341630448FEF732FA10BD000039
:102E10006C000020002401403C040020001002400F
:102E20007CB51E49064609780020002934D01C488C
:102E30004168C9430907FBD41A4C606B65152843E8
:102E4000606300211848FEF75DF9184800901848A3
:102E5000019069461448FEF7ABF9A0140190694649
:102E600000961148FEF7A4F90F48FEF743FB002136
:102E7000C9430D48FEF7DFFA0B48FEF7F5F90A499A
:102E800080B20A689368022633439360096803227C
:102E90000A60616BA94361637CBD00006C00002087
:102EA00000700040001002403C040020FFFF0700BB
:102EB0000110000010B501210020FEF7B7FC10BD85
:102EC00010B5EFF3108472B600F070FB084840684C
:102ED000804706F04BFD074801680422114301605A
:102EE00084F3108801210846FEF7B8FC10BD0000ED
:102EF000549C00080070004010B5EFF3108472B6C7
:102F00001148016801221143016001684907FCD59D
:102F10000168012212061143016001688901FCD594
:102F2000C16803221143C160C1680907890F0329E1
:102F3000FAD100F077FB05480068804706F040FDB5
:102F400084F3108810BD000000100240549C00085B
:102F5000014600200A0A00D00820084A114201D088
:102F600004221043064A114201D002221043054AAE
:102F7000114201D00121084370470000F0F0000029
:102F8000CCCC0000AAAA000038B50B231B07C5183B
:102F9000114B0FD01C152D1B18D02D1B19D0A5427D
:102FA000DD6A05D108242543DD62DB6A234007E0A2
:102FB0008024F8E7DC6A01252C43DC62DB6A2B40C5
:102FC000009311601146FEF7EBFA38BDDD6A02246A
:102FD000E9E7DD6A0424E6E70010024010B5FFF7D8
:102FE000B7FF810002484058002800D0804710BD3C
:102FF0003C03002070B51C4615460E460846FFF7F8
:10300000A7FF002C0DD0074980000C50304601F07E
:1030100093F9044600222946FEF7ECFB2046FEF712
:10302000C7FB70BD3C03002010B5D2B2FEF77AFB9F
:1030300010BD000070B500240E48FFF7F1FE0E4EE3
:103040000E4D010013D00E483246008B5043FDF761
:103050004FF8B04201D9FE2409E0A84207D3401B33
:10306000FE2148434B210901FDF742F8C4B2204636
:1030700070BD000000000244B80B0000080700000B
:103080006000F81F03494A690869496A504048408E
:10309000704700004000F81F0F494B6A0A69D218B8
:1030A000120EC2714B6A0A69D218120C82710A8A16
:1030B0008B8CD218120A42710A7C8B8CD218027146
:1030C0004A69120EC2704A69120C82708A8A120A08
:1030D0004270097D017070474000F81F10B50A4C1E
:1030E000607800280ED1FFF76DFE08480068804721
:1030F00000F01AFA00F090F806F016FCFDF7E8FE72
:103100000120607010BD00006C000020549C00087D
:1031100070B5410EC0017D220023FDF713F805466E
:1031200000F072F8044600E000BF00F06DF8001BEC
:10313000A842F9D370BD000070B505460C460022C8
:103140002048FFF783F9002229461E486668FFF7EA
:103150005BF9002221461B48FFF778F96068B0420E
:10316000F1D1E878184A01465043C01C830888070B
:1031700026D0164968783D220646504302463C3A1E
:103180007000801EC1408807D10F8918800F491038
:10319000081AC018A978401E08180D493C22484357
:1031A0006178E123514322781B015A438918A278A0
:1031B00010180818074A61688002511A401870BD3B
:1031C0000549D7E77C030020B5050000A0AA9900B7
:1031D00080510100FF030000505544000320704758
:1031E0000148006870470000C803002000B587B0A0
:1031F000694605A8FFF7A0FF0249096807B0401A11
:1032000000BD0000C803002000B587B0694605A8CE
:10321000FFF792FF07B000BD10B5084C20780028DA
:103220000AD100F04FF8FF2101310548FFF74AF8B5
:1032300000F078F80120207010BD00004000002050
:103240007C03002010B50C4C012001F051F82168DE
:103250008868C0040ED5C868C0050BD5C868802230
:103260001040FF388238C860044990024861204607
:10327000FFF724F810BD00007C030020000401408B
:1032800070B50446FFF7B2FF211A0D4D0220285EEB
:10329000C01C814203D9012001F02AF802E001207C
:1032A00001F01AF801F030F8002805D1012001F0F2
:1032B0001FF80220285E241A204600F03FF870BD57
:1032C0004000002010B51449144886B0002412C0F4
:1032D0001F21016084600461114944614160083824
:1032E000FFF7E2F86946CC750120487588750875C6
:1032F000002205A90948FFF727FA009401940494D5
:103300000022694605480394FFF784FA0348FEF754
:10331000B7FF06B010BD0000002800407C0300206D
:10332000FF03000010B5044C2046211D1830FFF7A4
:1033300003FF206010BD0000C8030020F0B587B077
:10334000044614223F4901A8FCF72CFF3D485038A1
:10335000406E009000F07EF83B4802993B4A401ACC
:10336000A105890D081887B2A10A684680785342E2
:1033700002E08918401C80B29942FAD26A46157957
:10338000E122120102E0891A6D1CADB29142FAD21B
:103390006A46547902E0641CA4B23C393C29FAD252
:1033A000927951188EB20121890203E07A1A761CB3
:1033B00097B2B6B28F42F9D203E03C3E641CB6B27B
:1033C000A4B23C2EF9D203E03C3C6D1CA4B2ADB2D9
:1033D0003C2CF9D203E0183D401CADB280B2182D50
:1033E000F9D26946C978890769464A7827D01849C9
:1033F000491E515C814202D2FCF77AFE084612490E
:10340000CA1B10492C394A60052252068A618E7007
:103410004C700A460D70203210706846C079C87032
:103420000020C861FF2248610132C8604A62086119
:10343000024608462438FFF7B7F807B0F0BD044944
:103440000C31D5E7CC030020FF03000080AEFEFF67
:10345000DD9C000810B506480168C868802210404D
:10346000FF388238C86051000148FEF72BFF10BDBD
:103470007C03002010B57D2105F0F1F84906C00954
:10348000084310BD10B5410EC0017D220023FCF79A
:1034900059FE10BD30B5194C87B0607800282BD18B
:1034A0000220FEF78FF9012826D16070694605A831
:1034B000FFF742FE12490546FF220846002301326B
:1034C0002438FEF75BFF0E481823014620310978A7
:1034D0000278594351183C225143427889183C22C2
:1034E0005143827880888918064A8902101A09187F
:1034F000681A61880818608007B030BD400000205D
:10350000A0030020FF03000001B582B00020C043EB
:103510000090012301AA02A90248FFF750FA684669
:1035200080880EBDE403002010B51C481A490160D4
:103530001C4A1B4B0021126803E05208491C072952
:1035400001D29A42F9D84A078B07D20FDB0F5201FA
:103550001B011A43C90700D008210A43C261002198
:10356000816001614161FF22C16005328162426078
:10357000012201625202826141620B48416B821456
:10358000114341630548FFF7D7F9002801D0FDF743
:103590008FFD00F047F810BD00300140E40300202B
:1035A00080969800380000200010024070B586B068
:1035B00014216846FCF70FFE052601250224360774
:1035C0006A468021304601950294FFF7DDFC002217
:1035D00080213046FFF728FD6A464021304602949C
:1035E000FFF7D2FC002240213046FFF71DFD6A465E
:1035F000202130460294FFF7C7FC002220213046EC
:10360000FFF712FD064C6A46402120460295FFF75F
:10361000BBFC012240212046FFF706FD06B070BD2D
:103620000004005010B586B014216846FCF7D3FDA5
:10363000022001900290032003900020052424071B
:1036400004906A4620212046FFF79EFC6A464021EE
:103650002046FFF799FC6A4680212046FFF794FC3C
:103660000120074C019002906A4640212046FFF756
:103670008BFC012240212046FFF7D6FC06B010BD8E
:103680000004005000BFFDE7F8B5174605460A469E
:103690001948069C089E0799447183711C0AC471DD
:1036A0001C0C04721B0E437281720B0AC3720B0C4A
:1036B0000373090E4173D4B2C4731048FDF744FB81
:1036C00039460E48FDF750FB10220B490B48FDF719
:1036D00053FB224629460948FDF74EFB0749C81F00
:1036E000FD38FDF793FA064C601CFCF77FFD21784E
:1036F000000208433060F8BD18010020100C0020C3
:103700000C0B0020F8B50E46050017467ED0286841
:103710000028FBD068680028F8D0A8680028F5D0F9
:10372000104602F02BFF002871D0764C002126664F
:10373000E565224627741A3211706174A1632176FF
:1037400001266676E1746165A1650B216A461170F8
:103750003846694602F001FF002800D0012020759C
:103760000821684601706946207C02F0F6FE664D2D
:1037700005212870684601706946207C02F0EDFE44
:1037800068700C21684601706946207C02F0E5FEF5
:10379000E8600D21684601706946207C02F0DDFE7C
:1037A00028610E21684601706946207C02F0D5FE32
:1037B00068610F21684601706946207C02F0CDFEE9
:1037C000A8611021684601706946207C02F0C5FEA0
:1037D000E8611321684601706946207C02F0BDFE55
:1037E0002F46203778701421684601706946207C86
:1037F00002F0B3FE68621521684601706946207CBC
:1038000002F0ABFE38721A21684601E076E077E0FC
:1038100001706946207C02F0A0FE38731B216846C7
:1038200001706946207C02F098FE78731C2168467E
:1038300001706946207C02F090FE28631D216846D5
:1038400001706946207C02F088FE68630021207CBC
:1038500002F08DFE3E700A2206216A602846297217
:10386000383842600172E968C1602969016169699B
:103870004161A9698161E969C1612030067002F086
:10388000EFFE28462149383004F08AFB7D21284686
:10389000C900383004F0ECFB28461D49683004F0BC
:1038A0007FFB28461B497C3004F07AFB28461A49E6
:1038B000903004F075FB28461849CC3004F070FBBA
:1038C00004F05CFB6063284615494C3001601549E3
:1038D000816015490161154941601549154DC16067
:1038E000A9688847E869804706F018F8A674296E29
:1038F00030468847686B80470020F8BD0320F8BD3C
:103900000A20F8BDAC000020E4090020ED450008C5
:10391000C94F0008E14E0008414F0008B5450008B6
:10392000B94D00081D480008F14C0008A54E0008DC
:10393000514D0008549C0008F8B504461D46174632
:103940000E460D48FDF700FA39460B48FDF70CFA14
:10395000F2B221460848FDF70FFA0749C81FFD38A3
:10396000FDF754F9054C601CFCF740FC217800027F
:1039700008432860F8BD0000100C00200C0B00204C
:10398000FFB585B00F46044607ADF02200211D4863
:103990000E9E05F009FE1B4A1021204605F01AFB79
:1039A00010220021684605F0FFFD012168460170E4
:1039B000062239466C46401C05F0DEFD02222946EF
:1039C000E01D05F0D9FD0F4A6846089905F0D7FAC1
:1039D00010220021684605F0E7FD022168460170CB
:1039E00006223946601C05F0C7FD02222946E01D6B
:1039F00005F0C2FD034A3146684605F0C0FA09B039
:103A0000F0BD00001C0B0020F8B517460E46054619
:103A10001C46F02200210B4805F0C6FD094A102182
:103A2000384605F0D7FA074A2146284605F0A7FA96
:103A3000102E06D321462846024A1031103005F0D8
:103A40009EFAF8BD1C0B0020F0B5044687B002209A
:103A50000490002006460190002C78D04248816BEB
:103A6000CA0701D1C80602D5012007B0F0BD002069
:103A700069460872014614223C4805F095FD3B4812
:103A800001214170384841732278002A04D0012A6C
:103A90000AD0032A26D118E001736B461A7A012650
:103AA000D206D20E403207E0E27B02736B461A7AEE
:103AB0000126D206D20E80321A7222790192A268B1
:103AC00000920E25A78965570CE001736B461A7AA0
:103AD000E0231A436B461A726268012600920A2597
:103AE0002789655701216A46117521490691097B8D
:103AF00091751D4805A9007C02F02FFDA84200D356
:103B0000054668B2002E1FD0174D2979002910D123
:103B10006946087306980422007B887303A9287CF1
:103B200002F093FD002812D011496846007B20392D
:103B300048703B4602A8009A019904F0C1F804902D
:103B4000002806D00020687104988EE7FFE7032064
:103B50008BE7064821780170034801221A3001786A
:103B600011430170F0E70000AC000020DC0A0020E7
:103B7000CC090020F8B500250446002818D03949A2
:103B8000277837480E463836027C3B0004F07FFD2C
:103B90001E121417191B1E2023252729303B3942DA
:103BA00046484A4C4E50525654585A5C5E606264C5
:103BB0000320F8BD407C00E0C07820714DE0007922
:103BC000FBE7C06C00E0006D606046E02648FBE764
:103BD00025481030F8E7807CEFE7C07CEDE719203E
:103BE00012E020492039486C896CA160606034E0A3
:103BF0001C49203908467C30C96F40686160A0606C
:103C00002BE0172000E0162069460870104602F0ED
:103C1000A4FCD9E7134820300078CEE7C868D3E782
:103C20000869D1E74869CFE78869CDE7C869CBE77C
:103C30007078C2E74878C0E73078BEE70878BCE71C
:103C4000806AC1E7C06ABFE7406ABDE74868BBE772
:103C5000087AB2E7486BB7E702252846F8BD0000AE
:103C6000AC000020AC0900208C060020F0B5002438
:103C700089B00746002806D0934D288FC00704D08E
:103C8000012009B0F0BD0320FBE7914E3A783046A1
:103C900020300290407B03908B488C49007C1300BD
:103CA00004F0F5FC1E102124272A2D333C41F74453
:103CB000819894A4ABAEB1B4B7BAC9E5D6FAFDF712
:103CC000F4F3F2F738796874002804D0012804D09E
:103CD000022802D102E0486B8047F3E000206871BF
:103CE00001F02EF9EEE03879E870EBE038792871D0
:103CF000E8E07868E864E5E078682865E2E07968FB
:103D0000002972D01022734805E079680029F8D0A4
:103D100070481022103005F02FFCD3E03879A874D9
:103D2000096E8847CEE03879E874CBE0397A6A4684
:103D3000117103995171062201A902F086FC002835
:103D400053D06348BA682038796882644164687CDB
:103D5000022827D1E878002824D05D4F0298F03758
:103D6000009708214156327A7368287C01F03BFFA6
:103D7000687D3870706A786002983A46407B387483
:103D8000E87C78740120F874B8742C323946287CA9
:103D900002F023FC00287DD0B87CF16802F0A0FC82
:103DA000F87CE8738EE0397A6A4611710399517193
:103DB000062201A902F049FC00286BD04448BB68E8
:103DC00020387A688021C2670B507BE079680691C1
:103DD000012102E07968069100216A46117706A95F
:103DE00001F0F0FC002855D06CE053E03879411E1A
:103DF0000E294FD80299087064E07868F06061E09D
:103E0000786830615EE0786870615BE07868B06126
:103E100058E07868F06155E03A7969460A71052200
:103E200001A902F012FC002834D068460179284824
:103E30003830417046E039796A461171042201A98F
:103E400002F003FC002825D068460079707039E044
:103E50003A7969460A71082201A902F0F6FB0028A6
:103E600018D0684601791A48383001702AE039794B
:103E70006A461171072201A902F0E7FB002809D068
:103E80006846007930701DE018E011E00AE006E0B5
:103E900002E016E0032415E07868A86212E0786872
:103EA000E8620FE00A48796838304160716009E0E3
:103EB0000748397938300172317203E078687063ED
:103EC00000E002242046DCE6AC000020549C000800
:103ED000AC0900208C060020F0B50446022085B015
:103EE0000090002C36D04748008FC00718D10C2214
:103EF0000021454805F058FB434E01207070414DAC
:103F0000207808271A35002806D001285DD002281D
:103F100066D0032850D16BE03A48018FC90602D51C
:103F2000012005B0F0BD6168002913D0A168002907
:103F300010D0E16800290DD0217C00290AD06A4602
:103F4000117330481E2203A9007C02F07EFB00287A
:103F500002D00AE00320E4E71F21684601742948E3
:103F600004A9007C02F0F9FA2074287869463843E5
:103F7000287020783070234E60683064A0687064C8
:103F8000E068B064207C707600203076087102F022
:103F900067FB307E6946401C088102A9307C01F035
:103FA000EDFB1A49002348701A46194601A803F090
:103FB00087FE0090002806D012490020487128781A
:103FC000F721084028700098ABE728780022384392
:103FD00028702078307011460220FCF72DFFE8E7AA
:103FE0003070287838432870A08803F00BFFE0E792
:103FF0003070287838432870227BA088A16803F0AD
:104000002BFFD6E7AC000020F00A0020AC0900200E
:10401000FEB508AF70CF6F4670C700F001F8FEBD67
:10402000FFB50D46002681B01F460124F02231461F
:10403000294805F0B9FA284A1021039804F0CAFF6C
:1040400026480A9941718771390AC171390C017288
:10405000390E41720B9981720B991F4F090AC17277
:104060000B99090C01730B99090E4173203F18E05D
:104070001A48194AC473641C1146A4B2203904F0CA
:104080007EFF00203118019A3B5C525C401C5A4074
:104090000C9B80B25A541028F4D3103D1036ADB2A8
:1040A000F6B2102DE4D2002D13D00B4A0B48114666
:1040B000C473203904F063FF002008E0019A31182E
:1040C000525C3B5C5A400C9B401C5A5480B2A84244
:1040D000F4D305B0F0BD00001C0B00202801002027
:1040E000F3B52B4887B00E46427869460A710078CE
:1040F000284C0876207A617A4018C5B2002E32D05A
:1041000000216846017221794172206B2049039099
:1041100038394A78684602741D4F09784174183F4F
:10412000397B817420463030009006AB01AA02A989
:10413000207C01F014FB397B68468175017941755B
:1041400009210175E07C002802D00A206946087523
:1041500005A9207C02F001FAC0B27070A84205D314
:10416000401B307006E0032009B0F0BD3070002520
:10417000257265726846042141562A46079804F064
:10418000D5F9002801D00020EEE70820ECE7000078
:10419000E4090020AC00002038B504466846054D0F
:1041A00004700B226946287C02F04FFA002800D0E8
:1041B0002C7538BDAC00002010B542790E49022A9A
:1041C0000BD0632A12D10068807864280FD00020B9
:1041D000087000280DD009A006E00279012A05D157
:1041E000006800781040F3E705F042FC10BD0120A4
:1041F000EEE705A0F8E70000440000204C4544200D
:104200004F4E0A0D000000004C4544204F46460A20
:104210000D000000F3B58DB0044601A8FCF75AFE6E
:104220002A4D02982946FCF744F8FCF78FFA0090D3
:1042300029460198FCF73DF8254D2946FCF776F80C
:10424000FCF79DFA079029460398FCF732F8FCF733
:1042500096FA0546049F059EFEF7ECFE02460220F4
:1042600060710E98002101701A4823680078187058
:1042700007982368000A5870236807989870009878
:1042800023680012D8702368009818712368280AE0
:10429000587123689D712068C271226838141072A9
:1042A0002268381250722068877222683014D072E7
:1042B000226830121073206846732068817320686A
:1042C000C173102020710FB0F0BD00000000C84283
:1042D0000000204144000020EFF3108172B6034A31
:1042E0001368034381F31088136070478C0100202A
:1042F000EFF3108172B6034A1368834381F3108889
:10430000136070478C01002001480068704700006E
:104310008C01002010B507480068002802D0FEF785
:10432000C9FD10BDFEF7CCFDFEF7E6FDFFF7B2F8C4
:1043300010BD00008C010020FF220132811A904242
:104340000CD009DC08280DD008DC012808D0022890
:1043500006D0042802D105E00F2212020720704780
:1043600005207047062070470149012048707047BA
:1043700074000020F0B541788DB000291DD1674C44
:104380002378012B02D1A189491CA181417B0129FC
:1043900013D1634EC278314620310D680095E02A72
:1043A0000DD04A71027B0A718168284605F0E4F855
:1043B000F06801693046203088470DB0F0BD012516
:1043C0000222002B0ED083681F78554B67705B6804
:1043D0000B933B0004F05BF9082837393B3E5055FE
:1043E0007205EAE7037B042BE7D180680378012B91
:1043F000E3D14378012BE0D18378012BDDD1C07864
:104400000128DAD10020B070E0234B710A71A0813D
:10441000A073E073207425706570684602700571A2
:10442000FFF724FC00200BE00020A081207008A8EA
:1044300002700B98417A08A80171FFF717FC012060
:10444000FFF7AAFEB9E70A71B7E7B57064E000208C
:10445000B07061E0027B0A71009A0423137001229C
:1044600006E083680C689B5C5B1CA354521CD2B2B0
:104470000B799342F5D8A0E768460570FFF72CFD4D
:104480009BE70025A5812570684602750B98417A47
:104490006846017605A8FFF7E9FB684605702048E5
:1044A00003211030019008300290103003906846CC
:1044B0000174FFF711FD052030707EE7017B0329B1
:1044C00002D007290BD027E069460A7080688178FE
:1044D00042780802104340BA6946888019E00322F6
:1044E00069460A7081688A784B78110219434ABA82
:1044F00069468A808268D178137909041B0252794F
:1045000019431143642251430291806869468079BE
:1045100008730846FFF7E0FC65704EE77806002058
:104520007400002010B501780E4A0123002902D042
:10453000012914D107E04078002801D013700EE063
:10454000022010700BE04178002908D106490C7850
:10455000012C04D18B73047ACC73407A08745370A5
:1045600010BD000074000020780600207047000095
:104570008307FF22DB0E9A408907090E9940002825
:104580000BDA0007000F0838830808489B0018184A
:10459000C36993430B43C3617047830804489B007E
:1045A0001B181868904308431860704700ED00E03E
:1045B00000E400E010B50B4803F0A4FD0A4841797F
:1045C000002905D001218173816B0422914381630D
:1045D000407C022805D1044810221A30017811438A
:1045E000017010BDB00A0020AC000020F8B5002713
:1045F000874803F087FD874D874C2878C10673D51F
:10460000A16B4A0604D54022914349084900A163A1
:104610007F490207D4310026002A01DBC20711D0EE
:104620007B4AC0325378022B02D04B78022B09D13F
:10463000A36B5B085B00A3632672637B53711671E7
:104640000127966062793A43714F503F002A31D179
:10465000020702D4C10703D12CE00A78002A06D051
:104660003978A27A91420ED9810712D41DE0227EB8
:104670008A724978002903D0617E8A4210D214E000
:10468000A662A6720CE0800703D42672206B401C41
:104690002063A6726078002802D1A06A401CA06244
:1046A000A06B40084000A06304E0EF2108402870A0
:1046B00000F08AFC2878800717D55548C03001796A
:1046C000012903D0617B227B91420ED9A6736671CA
:1046D0006178002902D1A16A491CA162617B417104
:1046E000A06B40084000A0634FE0A07B00284CD0A6
:1046F000208FC00649D4A673607B217B884231D2CB
:1047000008282FD8401C6073C0070DD020216846B0
:104710000170397B3E4F8170703F797841706946F6
:10472000207C01F01AFF787003F044FA002814D0BE
:1047300037480921C03041702672A16B49084900F1
:10474000A16366710671617B4171314970394978A5
:1047500081706078002815D017E02878EF21084094
:10476000287012E00121207C01F001FFA06B4008BD
:104770004000A063264826726671C0300671617BD6
:104780004171E6E7A06A401CA062A06B810702D5D8
:1047900002218843A06300280ED07D21C9001C4857
:1047A00003F066FC1A4803F075FC287880072ED5C4
:1047B000607C02281DD01EE02878C00708D0E06D7C
:1047C00001681348C03088472878400840002870A6
:1047D0002878000708D5E06D81680D48D4308847F7
:1047E0002878F721084028702878EF2108402870A1
:1047F000DBE700F0A5FB2878400704D4E06D4168B2
:104800000348A83088472878F92108402870F8BD67
:104810001C0A0020C6000020AC000020FFB50646A0
:10482000002097B00C4611900146099005460C9067
:10483000FE48079010300E90002013901290FC4814
:1048400001711838C2811A9A0274FA4AD27B4274F2
:10485000C1708170417181600173417381744161E4
:104860000170F548406B8047F148683803F04AFC16
:104870003078694608704109601E0290201FEF4F92
:104880001491109001291CD003297DD005297BD0DB
:1048900007297AD039460120F831487000F042FDEE
:1048A000E44810221A30017811430170E3480121D5
:1048B000503003F0DDFBE148503003F0EBFB1BB060
:1048C000F0BDDC48C178002903D0D949012018394E
:1048D0004EE1D8480299DA4D826C89B26B1C701C8B
:1048E000FFF792F8684600782870109809AB81B2FB
:1048F000D048826C2846FFF71FF828192038417FDE
:10490000027F09021143827FC07F12040A4300061E
:1049100009991043884249D1C448C64E10300090CE
:10492000C24BF28B691CB06CFFF72AF868792979C1
:1049300000020843A97909040143F164287AE9795E
:1049400000020843697A09040143A87A0006084373
:104950003065E87A4106490F00077970000F387218
:10496000287BB84D0007000F286101D10120286184
:104970007D21C9004843286140186861B0480D3066
:1049800004906846113C01E015E096E1047504A925
:10499000307C00F0FCFEA649002014314870012054
:1049A000F070A64818304078687079E7A048072171
:1049B0001430417074E7797B684681739C489D4F41
:1049C000183801796846417309210173F87C002881
:1049D00002D00A206946087303A9387C01F0BDFDA6
:1049E00021460D3909B2002900DA0021814200D99F
:1049F0006BE7B178707809020143F0788D4A0004C2
:104A000008433179090601430691126D0520914250
:104A1000884917D04D6A0CE02A6806998A4207D166
:104A200001211391291D079110310E916F6A0AE03F
:104A3000AD6A002DF0D10B217D481838417000F08F
:104A400071FC3CE7CF6A315C6A461170401C0B91E7
:104A5000335C401C305C02020807000F08300A90EB
:104A600030191A432038017F0C9B1943437F1B02E6
:104A70000B43817FC07F09041943000608430C9053
:104A8000D01B81B20122D20309A80D91914212D20A
:104A90007F180197029001211098009181B2304651
:104AA000069B079AFEF7F0FD09990C9888421AD1E7
:104AB0000120129017E009B2012279181204891816
:104AC00015910191029010980122009281B2304616
:104AD000069B079AFEF7D8FD09990C98884202D1E7
:104AE0000120159F1290112069460873514803A9AF
:104AF000007C01F032FD0D99884205D84C480A210E
:104B00001838417047619AE71298002877D04848D2
:104B1000002118384170139A82700B9A444BD206C8
:104B2000D20F42718160017347614248597001633D
:104B30004172139800280CD01846022118380170D1
:104B4000696AB94203D1002901D0082176E76F6272
:104B50001FE0149805280DD036483549002282718F
:104B600018390A70C06AB84211D100280FD0082045
:104B7000487064E72F482E4A01218171183A11705C
:104B8000C06AB84203D1002801D001201190294801
:104B9000C76227480078012802D10B98800602D509
:104BA0002449002008720A98201A001F002852DDAC
:104BB0000A9D0A986D1C611B091F305CC9B20F91D8
:104BC0001B491839C87000280B9819D0000707D066
:104BD0001A980821C3B2681EC2B2304600F0F8FB32
:104BE00001200090164C019702947019069B0E9AB2
:104BF0000F99FFF70DFA1198002825D04FE05AE0E1
:104C0000000702D00120119049E00D4801210290D7
:104C1000019700917019069B079A0F99FFF7F8F911
:104C20001A980021C3B206480F9A1CE08C06002097
:104C3000DC0A0020AC000020549C0008CC090020B5
:104C4000AB070020AC090020264884600F9901734F
:104C5000012141730CE00B98000706D01A98082137
:104C6000C3B230460A9A00F0B3FB1198002816D15F
:104C70000B98800606D51B49012018310871183998
:104C8000887408E017490020183108711648417BE4
:104C9000007B814203D91348143803F033FA1249D8
:104CA00002221A3108781043FB221040119A920018
:104CB00010430870F4E50C21BEE6711C22460B4837
:104CC00004F05AFC07480321017000214170074994
:104CD000816002990173044802211A3002780A4364
:104CE0000270DDE5C40A0020AC000020AB07002004
:104CF00070B5144C607C022803D01348406B804789
:104D000001E000F01DF911480E4DE27B01461A3515
:104D1000102614316379002A05D00622002B00D01A
:104D200042704A700AE00522002B00D042704A709F
:104D3000606D03F029F9A16E884202D328783043D0
:104D4000287070BDAC000020549C0008DC0A0020D4
:104D500070B5164C607C022803D01548406B804724
:104D600001E000F0EDF81348104DE27B01461A35E2
:104D7000102614316379002A08D00422002B00D0B9
:104D800042704A70607C02280BD170BD0322002B58
:104D900000D042704A70606D03F0F6F8A16E884250
:104DA000F3D328783043287070BD0000AC00002099
:104DB000549C0008DC0A0020FEB503F0DFF8364CF6
:104DC0000646607C022803D03448406B804701E0EF
:104DD00000F0B6F8304DA0781A35002700282AD008
:104DE0002F48616E03F044F92D4803F053F9607CBD
:104DF00002280ED02A48A16E143003F039F9284851
:104E0000143003F047F9607C022802D06079002852
:104E100020D012206946087202A9207C01F09DFB77
:104E2000A16E41181E48503003F022F91C48503042
:104E300003F030F90EE01A4804217C30477014303A
:104E400041702878002801D101202870C0B21021BB
:104E5000084328702878000704D51148903000785E
:104E6000002815D0E775607DA07569460870E07868
:104E700048700196207C01F0C4FB666560790028CB
:104E800005D107487C304770A07A401CA072FEBD57
:104E90000120E075E7E70000AC000020549C00080A
:104EA000600A002010B50B48407C022803D00A4855
:104EB000406B804701E000F043F808490220487049
:104EC00014314870034810221A30017811430170E0
:104ED00010BD0000AC000020549C0008DC0A00203B
:104EE00070B5144803F00EF9134C0021114DE17315
:104EF000607D283528702846BC384278EA70407BAF
:104F00002874E07C6874A974E974607C022802D17A
:104F10000A48806B8047074A207C68321146403936
:104F200001F05BFB0348B438C168A87C01F0D8FBF2
:104F300070BD0000600A0020AC000020549C0008F6
:104F400070B5144803F0DEF8124D134C2835607D1F
:104F50002E462870F03E706A68602846D038407B44
:104F60002874E07C68740120E874617C022900D018
:104F70000020084AA874543211462C39207C01F0D4
:104F80002CFB002805D0A87CF16801F0A9FBE87C87
:104F9000E07370BD740A0020AC0000203EB501240F
:104FA00068460470FEF7E6FD002805D168460179E1
:104FB0000448012901D004703EBD032101704470F2
:104FC0003EBD0000740000201FB5194803F09AF898
:104FD000184C1021A06B8843A06320461A3000783B
:104FE000000721D51248A430007800281CD101F018
:104FF00037FB207E6946401C888103A9207C00F095
:10500000BDFB0B49A0394870002069460871217921
:105010000246C9010A4369460A72034602460090E5
:1050200002A901A800F03EF802F0C4FD1FBD000077
:105030004C0A0020AC00002010B5034803F062F8D1
:10504000FFF7ACFF10BD00004C060020F0B506468F
:1050500000242046002E01D0002A1ED10020F0BDE1
:10506000355DAF1E3B0003F012FB09161416061245
:10507000140E16061600641C1554E4B2401CC0B28F
:10508000335D135400E01554401CC0B203E0A41C6F
:1050900000E0641CE4B2641CE4B28C42E0D3F0BDD6
:1050A00070470000F0B50C4687B084460021984850
:1050B0000C9D069181831E1E1746417100D100256B
:1050C000EAB202706146934D09782970012100917E
:1050D00061460978490908D002293FD004293BD00C
:1050E00007297DD0022007B0F0BD009904468183D6
:1050F000681C0822616C04F04AFAA08B0822083070
:1051000080B2A0832818216C04F041FAA08B0830EB
:10511000A0838148C06980470146E083A08B06AB2D
:105120002954401C80B2090A2954401CA083C1B2F2
:105130007848A26CFEF700FCA08B06992954401C0D
:1051400080B20A0A2A54401C80B20A0C2A54401C1D
:1051500080B2090E2954D7E001214171C17800299C
:1051600069D0012269460A7321786948CA096946EB
:105170004A736A4A006B0490507808751078487535
:1051800010462030007B887561481346303000900F
:10519000303803A9007C521C00F0E1FA810120782C
:1051A000BF22104008435A4920708979002905D050
:1051B000574A002191712021084320705448016D05
:1051C00054480A0A417082700A0CC270090E0171BB
:1051D000217841714E49098D8171090AC17100E040
:1051E00088E04B49FF30097AFF30401848490825CC
:1051F0004A7A4A49823904F0BFF94548017A407A2F
:105200000818C1B24248002E01721FD00278002A4D
:105210001CD0C279002A22D00F291DD820783D4AFF
:10522000030940181B010007000F0343237053714B
:1052300000203B4C07E0072055E7235C53556D1CCD
:10524000401CEDB280B28842F7D308E03048002914
:1052500005D0C279002A02D0314E017000272C4CB3
:1052600000202F4AE07180322D48FFF7EFFE607278
:10527000002801D00120E071002E14D021780029EF
:1052800011D0244847556D1CEDB2002F27D0A36ADA
:10529000002240190092019302901E4A236D103A99
:1052A0003046FEF7BDFE207806AB2918A18300200A
:1052B0006E46A26A0DC6174A1648203A236DFEF7BD
:1052C000E3F9144AA18B06985054030A52185370FC
:1052D000030C000E9370D070091DA18316E000220C
:1052E0002272A36A401900920A4A01930290203A5E
:1052F000236DD5E7002B09D00446002A06D0681C90
:10530000314604F039F92078401CA0830020EAE6F9
:10531000AC000020AC060020549C0008AC09002022
:10532000AA08002010B50C484022816B114381630C
:105330004079002801D0FFF73DF9074912221A31C0
:105340000878104308700121044802F091FE0348D8
:1053500002F0A0FE10BD0000AC0000201C0A0020DE
:1053600030B419480178012908D018481749C06895
:10537000891CC268084630BC1E3010471349847B24
:10538000203101230A68012C07D04478012C11D068
:10539000042C00D1437030BC704700248473032474
:1053A0000C71052414700C68C27B62700968027C61
:1053B0008A70EFE702230B7183891B0A1370096857
:1053C000007B4870E7E700007806002074000020AA
:1053D000FFB505468BB0A84816460C46099024E157
:1053E000285D641C801EE4B2030003F050F9090636
:1053F000115E6AA1AED6EFEDEC00A0490020487026
:10540000285D0872641CE0B22A5C4A72401C4AE0C3
:1054100000206946087708A9087069460872087371
:105420002819401E0490301B401C08759448924F68
:1054300002798A750999203F0A7B69464A757A780C
:10544000CA753A780A76099908AB0A7869464A76A5
:1054500003AA02A90192009107AA04A9007C01F005
:1054600093F80090C043400709D16846007F7870E8
:1054700008A8007838706846017A099801700027FA
:1054800006E0002203200099FBF7D6FC7F1CFFB248
:1054900068460521007BFAF72BFEB842F1D8684632
:1054A000007B2018401EC4B2BFE0285D7449641C14
:1054B0000122C87282400A840022E4B2114604200C
:1054C000B1E0285D4006410F68464170285D641CCC
:1054D0000107090F68460170E0B2295C401CC0B2A8
:1054E00001912A5C401C12021143C0B201912A5C56
:1054F000401C12041143C4B2084664214843019081
:105500005F486946007C01F073F80146C8434007D4
:105510000BD168460278099802725748019A2038E0
:1055200042626846427809984270002205207AE07B
:105530005348FF21006E002804D00068002801D0E5
:105540008047014606200E9A6DE0285D6946087482
:10555000641CE0B20391295C401CC0B200912A5C3B
:10556000401C12021143C0B200912A5C401C12047C
:10557000114364225143009100210191C0B22A5C81
:10558000401C6946C4B20A723D4803A9007C01F080
:105590000CF800220146072045E0285D641C000746
:1055A000000FE4B2002800D101207D21C90048434A
:1055B00031497D222039D2000861801800224861DB
:1055C000114608202FE033E034E0FFE7285D00219A
:1055D0006A46641C11705170E4B2810601D5012144
:1055E0005170C10601D5012111700007000F9070A4
:1055F00023481146007C01F01FF8401C15D0684676
:1056000001780998017368464178099841736846A2
:1056100080781C49085CFBF76FF817490022203995
:10562000086311460920FBF707FCB44200D2D7E615
:105630000FB0F0BD285D69460870641CE0B2295CBB
:10564000401CC0B201912A5C401C12021143C0B23E
:1056500001912A5C401C12041143C4B20846642123
:105660004843019006486946007C00F0C9FA0022D0
:1056700001460A20D7E70000CC090020F00A0020EC
:10568000AC000020F59C000870B517490023CA68DB
:105690001206120F18D18A6B154CD500134A02D589
:1056A0001268224009E08E6B01252D072E438E6380
:1056B00012688E6B2240AE438E63A24204D1032156
:1056C0008903884200D101230A480168490849003A
:1056D000194301600068C007C00F984201D0012043
:1056E00070BD002070BD000000100240007000403E
:1056F000001800000020024001090A22000751435F
:10570000000F4018C0B27047002102E00A38C0B252
:10571000491C0A28FAD20907090E0843704770B5D8
:1057200004460068C168490613D40021C943C1601A
:10573000FBF7FEFF7D260546F60006E0FBF7F8FFC7
:10574000401BB04201D9032070BD2068C0684006EC
:10575000F4D5002070BD10B5FDF774FD10BD70B517
:105760001C46049B15460E46052801D0002070BD3E
:1057700022462946304600F04DFA70BD10B5052886
:1057800001D0002010BD084600F080FA10BD10B511
:10579000052802D1084600F099FA10BD70B51446EC
:1057A0000D46052801D0D0B270BD1A4621462846C4
:1057B00000F0C6FA70BD10B5052802D1084600F009
:1057C000C7FA10BD10B5052801D0002010BD08464D
:1057D00000F0DAFA10BD30B502460168C07A0C2339
:1057E00058430930095C50680B01C45A00250C333A
:1057F000C550507A002809D0907A012805D1106947
:1058000001466143081A5168C85030BDD06800F0A5
:1058100003F9844200D92046917A002902D1117AF5
:10582000002903D011694843401AECE75068C5507D
:1058300030BD10B50B0914099C4201D3914201D32C
:10584000002010BD5A000C07835A240F0121A140EB
:105850008B438352012010BD30B500280AD00029A7
:1058600008D0002304E05C000D5B5B1C0553DBB239
:105870009342F8D330BDFFB50E461946099A0298F7
:1058800000F0A9F9002824D0002425461DE00023BB
:105890006F00F15B0120984001420ED0E0180C210E
:1058A00048430A994018007A01060A0F0107090FB8
:1058B000029800F090F901280BD05B1CDBB2102B92
:1058C000E7D310346D1CE4B2EDB200988442DED30D
:1058D000002004B0F0BDFEB5054614460E46580043
:1058E000FAF726FF009060000F460838FAF70CFF21
:1058F0002A463346FAF70AFE3B46009AFAF754FD69
:105900002A463346FAF76AFE03F0E2FBFAF770FF25
:10591000A04200D90446099804600898FAF708FFE5
:10592000009001912046FAF703FF2A463346FAF722
:10593000EDFD0022D243FAF7C9FE0C4607460222CB
:1059400028463146FAF7C2FE3A462346FAF7D0FD1A
:10595000019B009AFAF7CCFD03F0BAFBFAF724FF9B
:105960000A990860FEBD000010B5FAF7E1FE024694
:105970000B4600200149FAF731FE10BD000020401F
:1059800070B506460846FAF7D3FE054601200C46D8
:10599000B040FAF7B9FE2A462346FAF71FFE002266
:1059A000014BFAF7B3FD70BD00408F4070B514464F
:1059B0000D464000FAF7A0FE2946FAF776FC21468C
:1059C000FAF76FFCFAF732FF03F04AFCFAF7ECFE45
:1059D00040B270BDF0B58446964600206246002A6B
:1059E00001D0012215E00020F0BD4C0063461F5B92
:1059F00010260024234615469D40BD4301D1641C5A
:105A0000E4B25B1CDBB2B342F5D32018491CC0B230
:105A1000C9B27145E9D3F0BD0649884201D264207C
:105A200070470549884202D27D20C0007047034874
:105A30007047000080EE3600803F5C0210270000B7
:105A4000FFB504460678022083B020560290032555
:105A5000042761786557E75700290BD10F2801D13A
:105A60000F2D02D000260727E757052020560625D0
:105A700002906557002E25D01120205661690191B2
:105A800000901023E356207AE168029AFFF7F3FEB4
:105A9000002801D1FD20064018221921A256615686
:105AA000284600F098F8002807D119202056A8426F
:105AB00001DD054601E0FB200640072E02D1002F44
:105AC00000D1A757049902980870059805700698A8
:105AD0000770304607B0F0BD03780022032B14D1C5
