:020000040800F2
:1000000050120020D5000008A548000885360008D9
:1000100000000000000000000000000000000000E0
:10002000000000000000000000000000336C000829
:10003000000000000000000029550008558300085A
:10004000E7000008E7000008DF5B0008E7000008A1
:10005000E70000083510000845100008551000089A
:10006000E7000008E7000008E7000008E7000008D4
:10007000E7000008E7000008E7000008E7000008C4
:10008000E7000008E7000008E700000800000000A3
:10009000E7000008E7000008E7000008E7000008A4
:1000A000E7000008E7000008E7000008E700000894
:1000B000E3890008E7000008E7000008E7000008FF
:1000C0000348854600F020FD00480047599A000883
:1000D000501200200448804704480047FEE7FEE72E
:1000E000FEE7FEE7FEE7FEE7E9830008C10000083F
:1000F00030B50B46014600202022012409E00D46C0
:10010000D5409D4205D31D469540491B2546954047
:1001100040191546521E002DF1DC30BD70B500248B
:100120002546002801DA01244042002901DA012590
:100130004942FFF7DDFFAC4200D04042002C00D026
:10014000494270BDF0B51FB40646002082B0054696
:100150004024019100901BE0019922460F46304651
:1001600000F09CFB049A059B801A994110D310461D
:100170001946224600F082FB361A8F41019722462B
:1001800001200021009F00F079FB38184D410090BC
:100190002046641E0028DFDC019B00982946324679
:1001A00007B0F0BD03460B439B0703D009E008C925
:1001B000121F08C0042AFAD203E00B780370401C17
:1001C000491C521EF9D27047D2B201E00270401CA5
:1001D000491EFBD270470022F6E710B513460A46C7
:1001E00004461946FFF7F0FF204610BD0321001D0D
:1001F000401E037812021A43491EF9D51046704773
:10020000F8B502464A40D40F42004B0052085B0842
:100210009A4202D20246084611464A0023D0C30D34
:100220004A00DDB2120EAD1A202D35DA4902012640
:10023000490AF6058A19002C00D0524220214F1B92
:100240001146B9402A411018C20D9A4221D0002C03
:1002500017D0012D08DCDA05801AD20F8019D207D9
:10026000DBB200F047FBF8BDDA05801A012340003D
:100270001B06C01880185A428018CA0F1043490044
:1002800007E04908C2071143DA05801A80194008BF
:10029000801800F027FBF8BD61000122511A001BF5
:1002A000F7E70122D2075140AAE70122D2075040C6
:1002B000A6E7024670B54A40D30FDB0740002DD0B9
:1002C0004A002AD0010E140E000212020919400A37
:1002D000520A8418E50104465443000A120A2E0407
:1002E0005043A4194219200CC543AA18120C012529
:1002F000AD03521C521912047F39240400D0521C41
:10030000104301D44000491EC2B20C06C009201897
:10031000401C4008802A02D003E0002070BD400845
:100320004000002900DA0020184370BD70B5024675
:100330004A40D50F40004A00ED0740085208002807
:1003400014D0002A12D0C40DD30D41020120C005E3
:100350005202490A520AE41A091812187D349142CD
:1003600001D3641C00E04900002C01DA002070BDBC
:100370000023914201D3891A034340084900002811
:10038000F7D100290AD0914202D10121C90705E025
:10039000914201D2012101E00121C943E005C018C9
:1003A000401900F09FFA70BDF0B507460846584066
:1003B00087B0C00F049048000E4659004008490815
:1003C000BC1A884105D2384631461E4617460B46B0
:1003D00002465800400810434CD0300D03904005B1
:1003E0005900400D490D0590401A0290402872DADC
:1003F00018030121000B090508430190049800929D
:10040000002805D0019952420020884100920190B5
:10041000029840210A1A0199009800F02FFA054627
:100420000C466B4607CB00F04AFAC0197141039A9B
:100430000E0D0023D71756401A467A40164344D073
:10044000049A002A2DD0029A012A039A15DC12057B
:10045000C01A914101263605001C7141D20F059E3C
:10046000D2070093019202962A46234600F088FAAA
:1004700007B0F0BD38463146FAE71605224A0F4666
:10048000B218C01AB74101210905001C4F410018DC
:100490007F41114618187941E20F10436D196441EC
:1004A00013E0E2076D0815436408C2071443039A7A
:1004B00001261205C01A91413605001C7141CE0774
:1004C000400830434908C01851412A46234600F0ED
:1004D0004AFACDE7FFE7049801224000C117121A3B
:1004E00000238B4104983146C417381AA141EEE726
:1004F00030B40124E407634030BC55E730B4012434
:10050000E407614030BC4FE70000E0FFF0B51FB4E6
:1005100088B00B990998002448400999C00F4900F8
:1005200049080991C0070B990090490049080B91AF
:1005300009990898A64608431CD00B990A980843C5
:1005400018D0099801244000420D4800410D099837
:1005500024050003000B204309900B980003000BB7
:1005600020430B9050181C4940180022019014465B
:10057000104605E0002001460DB0F0BD032801DA69
:10058000034600E003239C46C11A0AAE0AE05F005E
:1005900008ADED5B4F00F75B7D430027AA187C4157
:1005A000491C5B1E6145F2DD410004AB5A52210437
:1005B000120C0A43240C401C0828DFDB019802902F
:1005C0000099704601910090059B049A079906983E
:1005D00000F0D6F9D0E700000DFCFFFFF0B50C46A7
:1005E0005C4085B0E40FE40703944C0000266408E7
:1005F00059009446490802460296224321D0624699
:100600000A431ED06200570D4A000E032303550D06
:10061000012402462C492405781B1B0B360B40187D
:1006200023432643614600901C46501AB44103D32D
:100630000098401C009002E0921800985B4100284E
:1006400003DA0020014605B0F0BD002001210905B4
:100650000746864611E064461D46141BB54106D385
:100660006546521BB341744607430C43A646CD076B
:1006700040084908284392185B4105460D43EAD1DA
:100680001046184313D06046194650407140084345
:1006900006D06046101AB34106D20122002306E0BC
:1006A00000220123DB0702E00122D243531000980D
:1006B00074460105381C6141029C039D0019694183
:1006C00000F051F9BFE70000FD03000070B54B00DA
:1006D0005B0803430BD04B005C0D0026334665429C
:1006E000B341D417AD1AA34102DB0020014670BD0F
:1006F00012053018514170BD10B5002296231146E5
:1007000000F0F8F810BD00000EB5C217C10F504040
:10071000CA0740180021054B0293019200910A4636
:100720000B4600F02DF903B000BD000033040000BB
:100730000EB505490291002100910A460B46019130
:1007400000F01EF903B000BD33040000C20F4100E9
:1007500040020123400ADB05D207090EC0187F2999
:1007600001DA00207047962903DC9623591AC84005
:1007700001E096398840002AF4D040427047410099
:1007800040020122400AD205090E80187F2901DAB1
:1007900000207047962903DC9622511AC840704702
:1007A000963988407047000070B5CD0F4A000903A4
:1007B0000123090B1B0519430B4BED070024520DB8
:1007C0009A4201DA002070BD074B34339A4203DCB1
:1007D0009A1A00F063F802E00449511888402C434B
:1007E000F1D0404270BD0000FF030000CDFBFFFFD1
:1007F0004A0009030123090B1B051943094B10B5D6
:10080000520D9A4201DA002010BD064B34339A4251
:1008100003DC9A1A00F042F810BD034951188840D1
:1008200010BD0000FF030000CDFBFFFFC20FD20789
:10083000400040080BD0C10D0723DB01C91840025E
:100840000905400A1143C2084007114370470020C0
:100850000146704710B5002904DB0124E40740423B
:100860008C412146002B04DB1C460123DB0752424E
:10087000A341994200D1904210BD000010B5202A3A
:1008800004DB0146203A9140002010BD9140202316
:100890009C1A0346E3401943904010BD10B5202A2E
:1008A00004DB0846203AD040002110BD0B46D3405F
:1008B000D0402024A21A91400843194610BD10B51B
:1008C000202A06DBCB170846203A1041C1170B43FC
:1008D00006E00B461341D0402024A21A9140084361
:1008E000194610BD002904DA401C490001D1400816
:1008F0004000704770B40024050C05D1102400049A
:1009000002D1002921D01124050E01D100020834A2
:10091000050F01D10001241D850F01D18000A41C09
:10092000002801DB4000641C002908D020252E1B74
:100930000D46F540A14000D001212943084301069E
:100940001B1B000ADB1D02D5002070BC7047DB05B5
:10095000181880180029F8DA401C4900F5D170BC3D
:1009600040084000704710B5002B08DA0024401CF6
:10097000614192185B411A4301D14008400010BD0B
:10098000F0B51FB482B005460C0003D0084608F04D
:10099000DDF802E008F0DAF8203002460090214647
:1009A0002846FFF76BFF049B059A04460F46184341
:1009B0001143084314D0184610431BD0009840211F
:1009C0000A1A18460599FFF769FF05460E46009A70
:1009D00005990498FFF752FF084305D0012004E071
:1009E0002046394607B0F0BD0020C11705430E432D
:1009F0002C43374300990E986305401A7905E40AA1
:100A000000220C43FD0A0A3002D500200146E9E726
:100A10000105101969410C9C0D9D00196941FFF7F2
:100A2000A2FFDFE7F8B50546480040080C4628431A
:100A300004D06000184A400D904201DD2846F8BD00
:100A400015493539884210DC88420BDB290D20031B
:100A500008432903014305D0E00F1049C00741189E
:100A60000020F8BD00200146F8BD161A4020821B68
:100A700028462146FFF702FF0746009128462146F7
:100A80003246FFF70BFF3A46009BFFF76CFF3246FA
:100A9000FFF7F4FEF8BD0000330400000000F03F53
:100AA0004A0009030123090B1B0519430A4B10B522
:100AB000520D9A4202DA0020014610BD064B343333
:100AC0009A4203DC9A1AFFF7E9FE10BD034BD218D5
:100AD000FFF7D4FE10BD0000FF030000CDFBFFFFB9
:100AE00010B5002904DB0124E40740428C41214673
:100AF000002B04DB1C460123DB075242A3418B423F
:100B000000D1824210BD0000064C0125064E05E0D2
:100B1000E36807CC2B430C3C98471034B442F7D31E
:100B2000FFF7D2FA94A50008B4A5000870B58C1898
:100B30000578401C6B075B0F01D10378401C2A111C
:100B400006D10278401C03E006780E70401C491C58
:100B50005B1EF9D12B0705D40023521E0DD40B7058
:100B6000491CFAE70378401CCB1A921C03E01D785D
:100B70000D70491C5B1C521EF9D5A142D8D3002030
:100B800070BD000038B50446064805490068FFF707
:100B9000AFFA604300E0401E00900028FBD138BD52
:100BA00040420F0038000020F8B504460068816814
:100BB0008907890F012902D10168C90722D18168FB
:100BC000114A10261140012500290ED181682943C0
:100BD00081600120FFF7D6FF00F0AAFD07460CE078
:100BE00000F0A6FDC01B0A2807D9A06D3043A06500
:100BF000E06D2843E0650120F8BD20680068C0432F
:100C0000C007EDD10020F8BD17000080F0B589B015
:100C10000C46074610220021684608F05DFF694631
:100C20002246084608F039FC684600788726010607
:100C3000684600290FDA00214318425C5B785200B5
:100C4000DB091A434254491C0F29F5DBC17B0246DC
:100C5000490071400DE000214318425C5B7852006E
:100C6000DB091A434254491C0F29F5DBC17B0246BC
:100C70004900D173E21DF9325169102912D001786F
:100C800009061BD500214518435C6D785B00ED0912
:100C90002B434354491C0F29F5DBC17B0346490014
:100CA000714019E000216218FF3201325378455C2F
:100CB000491C6B4053701029F5DB26E000214518D4
:100CC000435C6D785B00ED092B434354491C0F29AD
:100CD000F5DBC17B03464900D973E11D55698023CB
:100CE000FA316B54002500E05D5453695B1C53617D
:100CF000102BF9D300216218FF3201325378455C82
:100D0000491C6B4053701029F5DB00216218104616
:100D1000FF32E0300132437C5278491C5340437427
:100D20001029F3DB21461022F13104A808F0BCFEA3
:100D30002246394604A808F0B0FB1022002168467C
:100D400008F0CAFE09B0F0BD10B50446102200211B
:100D5000F13008F0C1FEFF20002115300151F022D2
:100D6000204608F0B9FE10BD0B4610B50246102112
:100D7000184608F0BDFB10BDF0B50446FF308BB03F
:100D80000F4601300890E11D4069FA310091103999
:100D900015460791002843D010210E1AAE4200D309
:100DA00016460099B2B24018394608F07DFE089800
:100DB000089940698019486110283AD3B54238D063
:100DC000002162181046FF32E0300132437C527835
:100DD000491C534043741029F3DB07992246084607
:100DE00008F05BFBBF19AD1B1AE000202118E031B1
:100DF0004A7C3B5C401C5A404A741028F6DB1022A7
:100E000002A8079908F050FE02A92246084608F0F9
:100E100044FB102202A9079808F046FE103D103747
:100E2000102DE2D8AAB23946009808F03DFE089885
:100E300045610BB0F0BD0000F7B523498022497A27
:100E4000214B511ACDB2197A5B7A8026F31A0A46E1
:100E5000DEB2871E491C0124C9B2761E3B0007F092
:100E6000A4FE09060C060C120C06062B3000164BCD
:100E7000AA4224D2154CA05403E0134BB24215DB16
:100E80001DE019720DE0104EAD1EAA4217DA0F4B8D
:100E9000985401985854491CC8B202991954401CDE
:100EA0003072002408480121C17108E0074CA054A9
:100EB00001986054491CE4E7034BAA42F6D320464C
:100EC000FEBD0220FEBD0000B0000020C2080020D0
:100ED0007047000000231A4619460EC002490160FF
:100EE00002494160704700000D093E00AB03050058
:100EF0003EB50D4C6946E2780A70227D8A70C87052
:100F0000606B07F0A1FA0190E06B0290E07D69460A
:100F10004870207C04F093FE218CE06B4143081A5A
:100F2000A16D4018A0653EBDB0000020FFB50020B7
:100F300085B000900546064601900024770007988A
:100F40000121C05BA14008422FD028190C22039038
:100F50005043089A1258002A27D0059A002A01D136
:100F6000490722D008994118082002910856021119
:100F700000070117069840B205F071F8002814D058
:100F80000298407A01010E980818C068002804D021
:100F90000198401CC0B2019007E0009A0F99039895
:100FA00088540098401CC0B20090641CE4B2102C1D
:100FB000C5D31035761CEDB2F6B2102DBDD3109905
:100FC00001980870009809B0F0BD000030B587B0F6
:100FD00014216846FFF7FFF80320019000200290DB
:100FE00003204003104C0090E06A01210843E062B6
:100FF000E06A0840059005206946000700F0D0FA35
:10100000E06A40084000E062606B0125AD052843BE
:10101000606300F09DFA00F0ABFA00F0A1FA606B9B
:10102000A843606307B030BD0010024010B502F065
:101030006FF810BD10B5012000F0A6FA022000F0F4
:10104000A3FA10BD10B5042000F09EFA082000F0AD
:101050009BFA10BD10B5102000F096FA202000F089
:1010600093FA402000F090FA802000F08DFAFF20E3
:10107000013000F089FA0120400200F085FA0120D9
:10108000800200F081FA0120C00200F07DFA012008
:10109000000300F079FA0120400300F075FA012006
:1010A000800300F071FA0120C00300F06DFA10BD5A
:1010B000FEE700000649800009580648091803D0D9
:1010C000C14203D0002070470120704702207047C2
:1010D00050A20008702FFCFF10B5094A0021CB0078
:1010E000D458844207D89B189B68834203D9C80010
:1010F0008018007910BD491CC9B21529EFD3FEE74D
:10110000D4A00008F8B5054604464035287D0026E1
:10111000012808D001202875206881688907890F77
:1011200001290ED101E00220F8BD0168C90708D0ED
:10113000A06D20210843A0650126002028753046B7
:10114000F8BDA16DFF220132914302221143A16536
:10115000C1688907890F0091C16889088900C16049
:101160002068816892071143816000F0E1FA074628
:101170000EE000F0DDFAC01B0A2809D9A06D02219B
:10118000884310210843A065002028750120F8BD80
:10119000206880680028ECDB2068C168009A114351
:1011A000C160A06D80088000401CA065C5E70000FC
:1011B000F8B506460D464036317D01290DD0012196
:1011C000317501688A68520709D5816D2022114363
:1011D0008165002030750120F8BD0220F8BD204B4C
:1011E0006A68D80547109A421E4C8A6A2B681BD041
:1011F0005B035B0B1A438A622968490305D5A16822
:101200000143A1600A20FFF7BDFC2868800302D5D6
:10121000A0683843A0602868C0031DD5A0680121DC
:1012200009060843A06017E05B035B0B9A438A62E0
:101230002968490302D5A1688143A1602868800319
:1012400002D5A068B843A0602868C00304D5A1688F
:10125000012000068143A16000203075F8BD000028
:1012600001100000002701400068006C704700007A
:1012700070B5040006D0A06D264600254036002833
:1012800002D006E0012070BDE5653575204600F00E
:10129000D1F8A06DC00603D421688868400705D541
:1012A000A06D10210843A0653575EBE7A06DFF2206
:1012B0000132904302221043A06588688207920F92
:1012C0005A48012A02D10A68D2072BD10323626847
:1012D0009B079A4205D05B429A4202D05B009A4239
:1012E00009D10A69920092080A6121680A69636853
:1012F0001A430A610CE00A69920092080A61816847
:101300000F22920491438160816862681143816079
:101310002168CA6818239A43CA602168CA68A3680A
:101320001A43CA6081680122520691438160816834
:10133000228F52061143816020688168C90004D45D
:10134000816801221207114381602068C168384A10
:101350001140C1602169E068022923D000210843BF
:10136000216A226B4903520011430843616B084311
:10137000A16989030843E169C90308432168CA6870
:101380001043C860A06A0146FF39C23905D0E16A3E
:1013900008432168CA681043C860606A01210128B7
:1013A00002D00BE00421DAE7206A002823D0A06DE8
:1013B00020221043A065E06D0843E065206C012801
:1013C00020681FD00169C90703D001694908490095
:1013D000016120684169C908C9004161206841690B
:1013E000E26B11434161E565A06D80088000401CFF
:1013F000A065002070BD2068C26801231B041A4349
:10140000C260DBE70269FF239B009A430261206808
:101410000269636CE66C1A43A36C33431A4302619E
:10142000206802690A430261D3E7000000270140F7
:101430001902FEFF7047F8B504464069254640355D
:101440000E4608280BD02068C068C00709D0A06DE0
:1014500020210843A065002028750120F8BD082739
:1014600000E00C2700F064F9009011E0701C0FD030
:10147000002E05D000F05CF90099401AB04207D95F
:10148000A06D04210843A065002028750320F8BD45
:10149000206800683842E9D0A06D01214902084364
:1014A000A0652068C16809058A0F0C21002A1AD19D
:1014B000226A002A17D10268120714D582685307DE
:1014C0000122002B08DB43688B434360A06D1302AD
:1014D00098431043A06506E0A06D20231843A06543
:1014E000E06D1043E065A069002801D1206801602B
:1014F0000020F8BD70B504462168002089684907BE
:1015000021D425464035297D01291CD0012129758A
:10151000E169012904D02046FFF746FB002811D1DC
:10152000A16D0A4A1140FF2201321143A165002139
:10153000E165297522681C21116021688A680423ED
:101540001A438A6070BD022070BD0000FEF1FFFFEB
:10155000024841684908490041607047005801400D
:10156000024841680422914341607047005801409D
:10157000024841680222914341607047005801408F
:1015800010B501F02BFD10BD10B504494A690242A7
:1015900002D04861FFF7F4FF10BD000000040140D5
:1015A000F8B500230124A7E027469F403A4070D0B9
:1015B0004D68022D01D0122D14D1DD08AD002D187B
:1015C00000952D6A5E07AC46F50E0F26AE46AE407E
:1015D0006546B543AC460E697546AE4065462E433A
:1015E000009D2E624D68012D05D0022D03D0112DD6
:1015F00001D0122D16D185680326AC465D00AE469B
:10160000AE406546B543AC46CE687546AE406546CD
:101610002E43866046680D79BE43ED06ED0F9D4072
:101620003543456006685F000325BD40AE46AE43C6
:101630000D79B446AE07B60FBE4065462E43066030
:10164000C6687546AE438D68BD403543C5604D687C
:10165000ED0050D52B4D6E6B26436E639E082A4DD0
:10166000B6007519AC46AD689E07360F0F27B74018
:10167000BD4305273F07B84201D100271AE0234F99
:10168000B84201D1012715E0214FB84202D102270B
:1016900010E030E01F4FB84201D103270AE01E4F8F
:1016A000B84201D1042705E01C4FB84201D10527FB
:1016B00000E00627B7402F436546AF60184D2E68FF
:1016C0004F689643FF0300D516432E606E684F683F
:1016D0009643BF0300D516436E60AE684F689643CD
:1016E000FF0200D51643AE60EE684F689643BF0216
:1016F00000D51643EE605B1C0A681546DD4000D03D
:1017000052E7F8BD00100240000001400004005004
:1017100000080050000C005000100050001C005049
:1017200000040140002A01D0816170478162704746
:1017300001480068704700003C0000200248016832
:10174000491C0160704700003C00002010B50648AD
:101750000168022211430160032000F007F800F045
:1017600007F8002010BD0000002002400020704754
:1017700010B50848816B02041143816300F04EF8F4
:1017800000F044F80448016808221143016000F0A9
:1017900035F810BD0010024000200240C106C90EFD
:1017A00001208840014908607047000080E200E0A5
:1017B000C106C90E01208840014908607047000039
:1017C00000E100E005490968C206D20E0120904000
:1017D000014201D0012070470020704700E200E084
:1017E000C106C90E01208840014908607047000009
:1017F00000E200E010B503F057F810BD02480168A0
:1018000002151143016070470070004002480168F2
:1018100042151143016070470070004002480168A2
:10182000102291430160704700700040094B1A6814
:101830009208920002431A600748026904239A43FF
:101840000261012903D040BF20BF20BF704730BFD5
:10185000704700000070004000ED00E00A4B1A687D
:101860009208920002431A60084803690422134355
:101870000361012906D040BF20BF20BF0169914309
:101880000161704730BFF9E70070004000ED00E0F3
:10189000F8B5684C074601210020C903644E654A2B
:1018A0004034102F73D011DC012F75D0022F70D06F
:1018B000042F6FD0082F21D1E16803231B031940A7
:1018C00069D0BC026310A1427AD09EE003255A4B36
:1018D0002D04202F08D0402F32D0FF3F7F1E6BD029
:1018E00007263602B74209D12669246901272C4010
:1018F0003F04BC4203D1B2055AE00846F8BD0121BD
:1019000049048C4203D1B107F8D54C48F8BDAC422C
:10191000FCD111688903F9D5106803210905084035
:1019200001210905401A09D0401A05D0884201D189
:101930004348F8BD1846F8BD4248F8BD4248F8BDD6
:10194000E1680124A406214006D0A142F7D19168A4
:101950008907F4D53D48F8BD11688901FBD5D068E9
:10196000D16880023A4C000F245C0802810FD068D5
:10197000491CC00306D41068C00601D5184602E011
:10198000304600E033486043FEF7B2FBF8BD3FE06D
:1019900002E01DE02AE026E0E3689B079B0F0CD0E5
:1019A000022B0DD0012B10D0032BEFD12269920511
:1019B000002AA2DBEAE703E02EE000F0E7F9E5E722
:1019C00011684907E2D53046E0E700F0EFF9DDE7BE
:1019D000E3680C252B4006D0082BF1D0042BF4D063
:1019E0000C2BE3D0D2E700F0C1F9CFE7E368032581
:1019F000AD022B40F7D00127FF02BB42E0D07A10A6
:101A00009342E2D0AB42D1D0C0E79942DDD0BDE7EE
:101A1000916B4902E7D4B9E7E1682940E3D001239B
:101A20005B049942CCD05A109142CED0AEE7000070
:101A30000024F4000010024000093D0088900000DE
:101A400020A1070040420F0080841E00006CDC02D1
:101A5000FCA1000800127A00F8B504460068664D43
:101A6000810601D400057DD5634E0027403EB06B52
:101A7000C00004D4B06B31040843B06301275F4851
:101A80000168C90511D40168821511430160FFF78F
:101A90004FFE009005E0FFF74BFE0099401A6428C6
:101AA00044D856480068C005F5D5316803200005C4
:101AB000626801401040884205D10323A0681B05DD
:101AC0001840884208D09003800F032804D1306862
:101AD000800301D50120F8BD2869032109040840CD
:101AE00029D00A40824202D02278920606D4A26807
:101AF0000A4082421FD0208800051CD528692A6927
:101B000088430121C9040A432A612A698A432A6158
:101B10002861C0050FD5FFF70BFE009008E0FFF726
:101B200007FE0099411A3648814201D90320F8BDC9
:101B300028698005F3D561688803800F032805D1E3
:101B400032680005824301400A433260286903225B
:101B500061681204114008432861002F06D0B06B61
:101B6000012100E002E009078843B0632078C00744
:101B700005D0E868E168800880000843E8602078C4
:101B8000800705D5E8680C21884321690843E8608F
:101B90002078400706D5E8680321890288436169F7
:101BA0000843E8602078000706D5E86803210903A8
:101BB0008843A1690843E8602088C00506D5E86825
:101BC000032109048843E1690843E860207840065E
:101BD00006D5E868012189068843616A0843E86000
:101BE0002078000606D5E868032189048843216A25
:101BF0000843E8600020F8BD40100240007000403B
:101C000088130000F8B5054653480E460068C00723
:101C1000C00FB0420AD25048016849084900314318
:101C200001600068C007C00FB0426FD128784B4CEC
:101C3000800705D5E068F0218843A9680843E06083
:101C40002878C00752D06868022817D0032818D017
:101C50002168012818D08905002957DAE168890828
:101C600089000143E160FFF763FD696807460229C7
:101C700012D003291CD0012926D033E02168890322
:101C8000EAE721688901E7E74907E5E7FFF750FD43
:101C9000C11B3348814223D8E0680007800F022827
:101CA000F4D123E0FFF744FDC11B2D48814217D832
:101CB000E0680007800F0328F4D117E0FFF738FD34
:101CC000C11B274881420BD8E0680007800F01281C
:101CD000F4D10BE0FFF72CFDC11B2148814201D953
:101CE0000320F8BDE0680007800FF3D11A480168AF
:101CF000C907C90FB1420BD90168490849003143EE
:101D000001600068C007C00FB04201D00120F8BDDB
:101D10002878400706D5E068072109028843E9686A
:101D20000843E0602878000707D5E0680721C9026A
:101D300088432969C9000843E06000F037F8E1688A
:101D4000084A0906090F515CC8400749086003208A
:101D5000FFF70CFD0020F8BD0020024000100240FB
:101D600088130000ECA10008380000200448054951
:101D70000068C968044A4905490F515CC84070476A
:101D8000380000200010024005A200080448054960
:101D90000068C968044A8904490F515CC84070470B
:101DA000380000200010024005A2000810B5184AB3
:101DB000D1680C20084004280BD0082810D00C282B
:101DC00010D050680004410F0120C003491C884016
:101DD00010BD1068C00601D50E4810BD0E4810BDDC
:101DE0000E4810BD88020E4B000F185C0902D36824
:101DF000890F491CDB0301D5084A05E01268D206A9
:101E000001D5044A00E0044A5043FEF771F910BDC1
:101E10000010024000093D000024F40000127A0086
:101E2000FCA10008F8B504460078FF4DC0074CD06F
:101E3000E8680007800F022807D0E8680007800FD5
:101E4000032809D1E868C00306D5286880033CD57B
:101E50006068002875D038E0012062680004824282
:101E600003D129680143296011E0052301211B04E6
:101E700089049A422A6802D10A432A60F1E7824320
:101E80002A602A68024000922868884328606068B7
:101E900000280DD0FFF74CFC0646E44F04E0FFF7A6
:101EA00047FC801BB8427DD828688003F7D50CE03A
:101EB000FFF73EFC0646DD4F04E0FFF739FC801BD0
:101EC000B842F0D828688003F7D42078800741D53D
:101ED000E8681F270007800F3F02012807D0E86845
:101EE0000007800F032809D1E868C00306D42868DA
:101EF000400717D5E068012823D113E0E0680028E7
:101F000017D029680922914301432960FFF710FC8B
:101F1000064604E0FFF70CFC801B0228C3D82868A3
:101F20004007F7D568682169B8430902084368602B
:101F300010E02868400840002860FFF7F9FB0646DB
:101F400005E090E0FFF7F4FB801B0228ABD828687F
:101F50004007F7D42078C00676D5E868B44E00076D
:101F6000800F0BD0E06900285DD02868FF21013187
:101F700008432860FFF7DCFB074644E0286880053B
:101F800002D5E06900286ED0606A696831408842F5
:101F900012D903F0BDFD0028AED16868616AB04374
:101FA000084300E0E4E068606868218C0002000AF1
:101FB0000906084368600FE06968B143014369603E
:101FC0006868218C0002000A090608436860606A9C
:101FD00003F09EFD00288FD1606A410B0120C003F1
:101FE000491C8840E968934A0906090F515CC840BA
:101FF000914908600320FFF7B9FB25E0FFF798FB44
:10200000C01B02288AD828688005F7D56868616AED
:10201000B043084368606868218C0002000A090622
:102020000843686010E02968FF200130814329607F
:10203000FFF77EFB064604E0FFF77AFB801B0228D1
:1020400084D828688005F7D420787C4E000723D5F3
:1020500060690028306910D0012108433061FFF722
:1020600067FB074605E009E1FFF762FBC01B02289A
:102070007ED830698007F7D50EE040084000306117
:10208000FFF756FB074604E0FFF752FBC01B022890
:102090006ED830698007F7D42078400761D5A86BE7
:1020A0000027C00005D4A86B012109070843A863D5
:1020B000012763480168C90511D4016882151143DD
:1020C0000160FFF735FB009005E0FFF731FB009959
:1020D000401A64284CD85A480068C005F5D5FF203E
:1020E000A2680130824203D131690143316111E0BC
:1020F00001218902002A07D005231B029A4203D13D
:1021000032690A433261EFE73269824332613069F2
:1021100088433061A06800280ED0FFF709FB0090CB
:1021200006E0FFF705FB0099411A404881421FD89D
:1021300030698005F5D50DE0FFF7FAFA009006E06A
:10214000FFF7F6FA0099411A3848814210D83069F1
:102150008005F5D4002F04D0A96B0120000781432E
:10216000A9632078800630D53649A0694A1400E07A
:102170007DE0002816D0AB6801200343AB606B6B99
:1021800003436B63086A10430862FFF7D1FA0646FF
:1021900004E0FFF7CDFA801B022868D8A868800702
:1021A000F7D512E0A86840084000A860086A90438C
:1021B0000862FFF7BDFA064604E0FFF7B9FA801B94
:1021C000022854D8A8688007F7D4A06A002853D002
:1021D000E9680907890F032950D00126360602282D
:1021E000286805D0B0432860FFF7A2FA044640E013
:1021F000B0432860FFF79CFA074604E0FFF798FA1F
:10220000C01B022833D828688001F7D4216BE06A0C
:10221000EA680843616BFD231B049A43114308439A
:10222000E860286830430FE0001002408813000087
:1022300000E00000ECA1000838000020401002403F
:1022400000700040000001402860FFF771FA04466A
:1022500004E0FFF76DFA001B022808D82868800107
:10226000F7D509E0FFF764FA001B022801D9032023
:10227000F8BD28688001F5D40020F8BD0120F8BD24
:1022800030B5014620310A78012A15D001220A70A2
:1022900002234B700468CA23636204685323636299
:1022A00003689C6820252C439C600068FF234362E0
:1022B0004A700020087030BD022030BD10B506F015
:1022C000E5F810BDF8B50546044620352878012804
:1022D0001DD001202870022068702268CA20506238
:1022E000226853205062FF2001300026FF278142E0
:1022F0001CD121688A6882438A6020688168012233
:10230000120391438160FFF713FA009009E0022065
:10231000F8BDFFF70DFA0099411A7D20C0008142F7
:102320001BD82068C068C007F3D020E0206881680F
:102330000122520291438160206881681201914319
:102340008160FFF7F5F900900DE0FFF7F1F90099D2
:10235000411A7D20C000814205D9206847620320D0
:1023600068702E70F8BD2068C0688007EDD52068C1
:102370004762012068702E700020F8BDF0B50C4651
:10238000FF219C460131254640268F051D4B2035F7
:102390008A4204D161620168C869496C05E0012183
:1023A000490261620168086A896C8202920E227099
:1023B0004204520E62704206520EA270020C490490
:1023C0003240490CE27061608100890E297001463B
:1023D00039401840E1616061604600280FD12078E3
:1023E00003F0CEFB2070607803F0CAFB6070A07829
:1023F00003F0C6FBA070287803F0C2FB2870002011
:10240000F0BD00008080808010B500680B464068F9
:10241000C021C94301400002000ECC04D870E40E74
:102420005C708C06A40E0904490F9C701970002A78
:102430000AD103F0A5FBD870587803F0A1FB5870BF
:10244000987803F09DFB9870002010BD30B50B46C6
:102450000168896A5960016809694904490C9960F1
:10246000006804680F482146014088024D04800E30
:1024700018706D0E49065D70490E99706102490E23
:1024800040242140D970002A0AD103F079FB18704A
:10249000587803F075FB5870987803F071FB9870CA
:1024A000002030BD7F7F7F0070B5040005D0254639
:1024B00020356878002802D006E0012070BD002099
:1024C0002870204600F042F8022068702168CA2077
:1024D0004862216853204862204603F064FBFF21D4
:1024E0000028206803D0416204206870E5E7826814
:1024F000154B1A408260226890686368A669184389
:1025000023693343184390602268E06810612068B3
:10251000026923891B041A4302612068C268802370
:102520009A43C2602068C26C92089200C264E26959
:10253000606902432068C36C1A43C2642068416228
:1025400001206870002070BDBFFF8FFF00B599B0FB
:102550000420009000200A90FF200130029068467D
:10256000FFF760FC002801D0FEF7A2FD20200E90AE
:10257000C0020F900EA8FFF76FFA002801D0FEF7F7
:1025800097FD08480169012292041143016100226C
:1025900011460220FFF72EF90220FFF709F919B0C2
:1025A00000BD000040100240FEB50646044620363D
:1025B00030780B46012842D0012030700220707024
:1025C00020681D46002720358068002A39D0400643
:1025D00055D5187803F0D4FA287803F0D1FA197891
:1025E0009878090408435978DA78090212041143EB
:1025F0000843297809060843D969084359690843FB
:10260000054699695868084300902168CA204862C5
:10261000216853204862FF205A6A0130802182429B
:102620004AD122689368834393602268D068084047
:10263000FF388238D060FFF77BF8019029E0022054
:10264000FEBD400600D4DF70187803F0A1FA020442
:10265000587803F09DFA00020243987803F098FA44
:102660000243D87800040243287803F091FA000668
:102670000243D8690243586902431546C1E7DF7037
:10268000AAE7FFF755F80199411A7D20C000814261
:102690002AD82068C068C007F3D02068C5612168C7
:1026A0000098486420688168FF22013211438160EC
:1026B00020688168120130E02068826801235B0293
:1026C0009A4382602068C2680A401D495118C1605F
:1026D000FFF72EF801900EE0FFF72AF80199411A52
:1026E0007D20C000814206D92168FF204862032076
:1026F00070703770FEBD2068C0688007ECD5206818
:10270000056221680098886420688168012252026D
:10271000114381602068816812011143816009487A
:102720000268012149040A43026082680A43826008
:102730002168FF2048620120707037700020FEBDC4
:102740007FFDFFFF00040140F8B505460446203533
:1027500028780B46012815D00120287002206870C7
:102760005878002A10D003F00BFA987803F008FA92
:10277000D8789E78000406435878197800024903F7
:10278000084316E00220F8BDC10603D5EF2108403A
:102790000A305870D87803F0FBF90604587803F033
:1027A000F7F900020643987803F0F2F90643187827
:1027B000400306432168CA204862216853204862CA
:1027C000204603F0F0F90027002811D110480640F8
:1027D000206846602068C16880229143C1602068FB
:1027E000806880060CD4204600F08CF8002807D0C2
:1027F0002168FF204862042068702F700120F8BD16
:102800002168FF204862012068702F700020F8BD09
:102810003FFFFF00F8B506460446203630780D46E7
:1028200001280ED00120307002207070206800272F
:102830008068002A07D040061AD5287803F0A0F94E
:1028400017E00220F8BD400600D4EF70287803F0AE
:102850009FF90204687803F09BF900020243A8780C
:1028600003F096F90243E8780004024300920BE07B
:10287000EF702978A878090408436978EA78090292
:1028800012041143084300902168CA20486221685D
:1028900053204862204603F086F900281FD11849CA
:1028A000009808402168086020688168012292042D
:1028B000914381602969E868084321688A68104368
:1028C00088602068C16880229143C1602068806868
:1028D00080060CD4204600F015F8002807D02168A7
:1028E000FF2048620420707037700120F8BD216815
:1028F000FF2048620120707037700020F8BD000092
:102900007F7F7F0070B504460068C168A0229143B4
:10291000C160FEF70DFF7D260546F60006E0FEF7D6
:1029200007FF401BB04201D9032070BD2068C0687A
:102930008006F4D5002070BD70B5040006D0254691
:102940004035687C0026002802D005E0012070BDDB
:102950002E74204600F032F8022068742068016866
:10296000402291430160A168606822690843E168E0
:1029700011430843616901220843A16952021140D1
:102980000843E1690843216A0843A16A08432168B2
:102990000860A0690421000C0840616A08432168AE
:1029A00048602168E06A08612068C169920091432B
:1029B000C161666501206874002070BD7047F8B57C
:1029C000044600276846078026464036707C01286A
:1029D00002D0707C22287ED100290CD0002A0AD097
:1029E000002B08D0307C012875D001203074707C19
:1029F000012802D003E00120F8BD32207074676521
:102A0000A263A387E3872163A386E386A764E764C1
:102A10000125A06A6D03A84207D120680168A94377
:102A20000160206801682943016020680168490647
:102A300003D401684022114301600121FF20E268B4
:102A4000C90205308A42616866D1002904D08142FA
:102A50000CD1E08E012809D1206B21680088C86064
:102A6000206B801C2063E08E401EE086E08E0028F4
:102A700043D1A06AA84246D120680168012212030E
:102A8000114301603FE02068C068A16B0880A06B23
:102A9000801CA063B0E0002202212046069B04F0C7
:102AA0006FF800287DD1206B21680088C860206BFA
:102AB000801C2063E08E401EE086E08E002808D156
:102AC000A06AA84205D120680168012212031143BF
:102AD0000160002200E0CCE001212046069B04F0CA
:102AE0004FF800287FD12068C068A16B0880A06BD8
:102AF000801CA063E08F401EE087E08E0028CAD1D2
:102B0000606800287BD1002201212046069B04F04A
:102B100037F8002867D1B6E7002904D081420BD1ED
:102B2000E08E012808D1206B411C216321680078C8
:102B3000C860E08E401EE086E08E002845D1A06A85
:102B4000A84205D1206801680122120311430160E7
:102B5000002201212046069B04F012F8002842D1F1
:102B60002068C068A16B087046E000220221204660
:102B7000069B04F005F8002835D1206B411C216329
:102B800021680078C860E08E401EE086E08E002854
:102B90000AD1A06AA84207D120680268012109036E
:102BA00000E020E00A430260002201212046069B4B
:102BB00003F0E6FF002816D12068C268A06B411C14
:102BC000A1630270E08F401EE087E08E0028CCD128
:102BD0006068002813D1002201212046069B03F0E3
:102BE000CFFF002802D00320F8BD08E02068C168AC
:102BF000A06B421CA2630170E08F401EE087A06AB8
:102C0000A8420FD1002201212046069B03F0B8FF05
:102C1000002802D0606D02210EE02068C06869467D
:102C200008800888012280212046069B03F0A8FF27
:102C3000002804D0606D202108436065D3E701209F
:102C40007074A06AA84211D120688168C943C9067E
:102C50000CD4616D0222114361650168A9430160D2
:102C600020680168294301603774C4E63774002086
:102C7000BAE70220B8E770B5040005D025466035F4
:102C8000687A002802D006E0012070BD002028727A
:102C9000204600F027F8242068722068016849085F
:102CA00049000160606A002802D0204605F0BAFCA5
:102CB000204605F04DFD0128E7D020684168092233
:102CC000D20291434160206881682A229143816049
:102CD00020680168012211430160204605F008FDCB
:102CE00070BD000010B50448816B012252041143ED
:102CF000816307F0FDF810BD00100240FFB50646E5
:102D000004466036707A83B00D46202858D1002DD5
:102D10000CD00598002809D00120A1680003814249
:102D200007D12069002804D1E80702D0012007B0AC
:102D3000F0BD307A012843D0012030720020E066D7
:102D400021207072FEF7F4FC019027464037059869
:102D500038820598788218E0788A401E7882069832
:102D60000090002280212046019B05F009FE0028EA
:102D700018D10120A1680003814202D120690028F6
:102D800012D02168287888626D1C788A0028E3D1E7
:102D900006980090002240212046019B05F0F0FD9E
:102DA000002808D00320C2E728882168C005C00D8C
:102DB0008862AD1CE9E72020707200203072B6E70F
:102DC0000220B4E710B51248017800291ED1012273
:102DD000027011480F49016000210164C161D307ED
:102DE0008161436082638160C16001620723416247
:102DF000C3630261C1620422426101630748416BFF
:102E00004215114341630448FEF732FA10BD000039
:102E10006C0000200024014040040020001002400B
:102E20007CB51E49064609780020002934D01C488C
:102E30004168C9430907FBD41A4C606B65152843E8
:102E4000606300211848FEF75DF9184800901848A3
:102E5000019069461448FEF7ABF9A0140190694649
:102E600000961148FEF7A4F90F48FEF743FB002136
:102E7000C9430D48FEF7DFFA0B48FEF7F5F90A499A
:102E800080B20A689368022633439360096803227C
:102E90000A60616BA94361637CBD00006C00002087
:102EA000007000400010024040040020FFFF0700B7
:102EB0000110000010B501210020FEF7B7FC10BD85
:102EC00010B5EFF3108472B600F070FB084840684C
:102ED000804706F0E3FF07480168042211430160C0
:102EE00084F3108801210846FEF7B8FC10BD0000ED
:102EF00084A100080070004010B5EFF3108472B692
:102F00001148016801221143016001684907FCD59D
:102F10000168012212061143016001688901FCD594
:102F2000C16803221143C160C1680907890F0329E1
:102F3000FAD100F077FB05480068804706F0D8FF1B
:102F400084F3108810BD00000010024084A1000826
:102F5000014600200A0A00D00820084A114201D088
:102F600004221043064A114201D002221043054AAE
:102F7000114201D00121084370470000F0F0000029
:102F8000CCCC0000AAAA000038B50B231B07C5183B
:102F9000114B0FD01C152D1B18D02D1B19D0A5427D
:102FA000DD6A05D108242543DD62DB6A234007E0A2
:102FB0008024F8E7DC6A01252C43DC62DB6A2B40C5
:102FC000009311601146FEF7EBFA38BDDD6A02246A
:102FD000E9E7DD6A0424E6E70010024010B5FFF7D8
:102FE000B7FF810002484058002800D0804710BD3C
:102FF0004003002070B51C4615460E460846FFF7F4
:10300000A7FF002C0DD0074980000C50304601F07E
:10301000D9FA044600222946FEF7ECFB2046FEF7CB
:10302000C7FB70BD4003002010B5D2B2FEF77AFB9B
:1030300010BD000070B500240E48FFF7F1FE0E4EE3
:103040000E4D010013D00E483246008B5043FDF761
:103050004FF8B04201D9FE2409E0A84207D3401B33
:10306000FE2148434B210901FDF742F8C4B2204636
:1030700070BD000000000244B80B0000080700000B
:103080006000F81F03494A690869496A504048408E
:10309000704700004000F81F0F494B6A0A69D218B8
:1030A000120EC2714B6A0A69D218120C82710A8A16
:1030B0008B8CD218120A42710A7C8B8CD218027146
:1030C0004A69120EC2704A69120C82708A8A120A08
:1030D0004270097D017070474000F81F10B50A4C1E
:1030E000607800280ED1FFF76DFE08480068804721
:1030F00000F01AFA00F090F806F0AEFEFDF7E8FED8
:103100000120607010BD00006C00002084A1000848
:1031100070B5410EC0017D220023FDF713F805466E
:1031200000F072F8044600E000BF00F06DF8001BEC
:10313000A842F9D370BD000070B505460C460022C8
:103140002048FFF783F9002229461E486668FFF7EA
:103150005BF9002221461B48FFF778F96068B0420E
:10316000F1D1E878184A01465043C01C830888070B
:1031700026D0164968783D220646504302463C3A1E
:103180007000801EC1408807D10F8918800F491038
:10319000081AC018A978401E08180D493C22484357
:1031A0006178E123514322781B015A438918A278A0
:1031B00010180818074A61688002511A401870BD3B
:1031C0000549D7E780030020B5050000A0AA9900B3
:1031D00080510100FF030000505544000320704758
:1031E0000148006870470000CC03002000B587B09C
:1031F000694605A8FFF7A0FF0249096807B0401A11
:1032000000BD0000CC03002000B587B0694605A8CA
:10321000FFF792FF07B000BD10B5084C20780028DA
:103220000AD100F04FF8FF2101310548FFF74AF8B5
:1032300000F078F80120207010BD00004000002050
:103240008003002010B50C4C012001F097F9216893
:103250008868C0040ED5C868C0050BD5C868802230
:103260001040FF388238C860044990024861204607
:10327000FFF724F810BD0000800300200004014087
:1032800070B50446FFF7B2FF211A0D4D0220285EEB
:10329000C01C814203D9012001F070F902E0012035
:1032A00001F060F901F076F9002805D1012001F064
:1032B00065F90220285E241A204600F03FF870BD10
:1032C0004000002010B51449144886B0002412C0F4
:1032D0001F21016084600461114944614160083824
:1032E000FFF7E2F86946CC750120487588750875C6
:1032F000002205A90948FFF727FA009401940494D5
:103300000022694605480394FFF784FA0348FEF754
:10331000B7FF06B010BD0000002800408003002069
:10332000FF03000010B5044C2046211D1830FFF7A4
:1033300003FF206010BD0000CC030020F0B587B073
:10334000044614223F4901A8FCF72CFF3D485038A1
:10335000406E009000F07EF83B4802993B4A401ACC
:10336000A105890D081887B2A10A684680785342E2
:1033700002E08918401C80B29942FAD26A46157957
:10338000E122120102E0891A6D1CADB29142FAD21B
:103390006A46547902E0641CA4B23C393C29FAD252
:1033A000927951188EB20121890203E07A1A761CB3
:1033B00097B2B6B28F42F9D203E03C3E641CB6B27B
:1033C000A4B23C2EF9D203E03C3C6D1CA4B2ADB2D9
:1033D0003C2CF9D203E0183D401CADB280B2182D50
:1033E000F9D26946C978890769464A7827D01849C9
:1033F000491E515C814202D2FCF77AFE084612490E
:10340000CA1B10492C394A60052252068A618E7007
:103410004C700A460D70203210706846C079C87032
:103420000020C861FF2248610132C8604A62086119
:10343000024608462438FFF7B7F807B0F0BD044944
:103440000C31D5E7D0030020FF03000080AEFEFF63
:103450000DA2000810B506480168C8688022104017
:10346000FF388238C86051000148FEF72BFF10BDBD
:103470008003002010B57D2105F07FFB4906C009BF
:10348000084310BD10B5410EC0017D220023FCF79A
:1034900059FE10BD30B5194C87B0607800282BD18B
:1034A0000220FEF78FF9012826D16070694605A831
:1034B000FFF742FE12490546FF220846002301326B
:1034C0002438FEF75BFF0E481823014620310978A7
:1034D0000278594351183C225143427889183C22C2
:1034E0005143827880888918064A8902101A09187F
:1034F000681A61880818608007B030BD400000205D
:10350000A4030020FF03000001B582B00020C043E7
:103510000090012301AA02A90248FFF750FA684669
:1035200080880EBDE803002010B51C481A490160D0
:103530001C4A1B4B0021126803E05208491C072952
:1035400001D29A42F9D84A078B07D20FDB0F5201FA
:103550001B011A43C90700D008210A43C261002198
:10356000816001614161FF22C16005328162426078
:10357000012201625202826141620B48416B821456
:10358000114341630548FFF7D7F9002801D0FDF743
:103590008FFD00F047F810BD00300140E803002027
:1035A00080969800380000200010024070B586B068
:1035B00014216846FCF70FFE052601250224360774
:1035C0006A468021304601950294FFF7DDFC002217
:1035D00080213046FFF728FD6A464021304602949C
:1035E000FFF7D2FC002240213046FFF71DFD6A465E
:1035F000202130460294FFF7C7FC002220213046EC
:10360000FFF712FD064C6A46402120460295FFF75F
:10361000BBFC012240212046FFF706FD06B070BD2D
:103620000004005010B586B014216846FCF7D3FDA5
:10363000022001900290032003900020052424071B
:1036400004906A4620212046FFF79EFC6A464021EE
:103650002046FFF799FC6A4680212046FFF794FC3C
:103660000120074C019002906A4640212046FFF756
:103670008BFC012240212046FFF7D6FC06B010BD8E
:103680000004005000BFFDE7F8B5174605460A469E
:103690001948069C089E0799447183711C0AC471DD
:1036A0001C0C04721B0E437281720B0AC3720B0C4A
:1036B0000373090E4173D4B2C4731048FDF744FB81
:1036C00039460E48FDF750FB10220B490B48FDF719
:1036D00053FB224629460948FDF74EFB0749C81F00
:1036E000FD38FDF793FA064C601CFCF77FFD21784E
:1036F000000208433060F8BD1C010020780C002057
:10370000740B0020F8B50E46050017467ED02868D9
:103710000028FBD068680028F8D0A8680028F5D0F9
:10372000104603F06FF9002871D07B4C002126660B
:10373000E565224627741A3211706174A1632176FF
:1037400001266676E1746165A1650B216A461170F8
:103750003846694603F045F9002800D0012020755D
:103760000821684601706946207C03F03AF96B4DE8
:1037700005212870684601706946207C03F031F904
:1037800068700C21684601706946207C03F029F9B5
:10379000E8600D21684601706946207C03F021F93C
:1037A00028610E21684601706946207C03F019F9F2
:1037B00068610F21684601706946207C03F011F9A9
:1037C000A8611021684601706946207C03F009F960
:1037D000E8611321684601706946207C03F001F915
:1037E0002F46203778701421684601706946207C86
:1037F00003F0F7F868621521684601706946207C7D
:1038000003F0EFF838721A21684601E080E081E0A9
:1038100001706946207C03F0E4F838731B21684688
:1038200001706946207C03F0DCF878731C2168463F
:1038300001706946207C03F0D4F828631D21684696
:1038400001706946207C03F0CCF868630021207C7D
:1038500003F0D1F83E700A2206216A6028462972D8
:10386000383842600172E968C1602969016169699B
:103870004161A9698161E969C1612030067003F085
:1038800033F928462649383004F0EAFD7D212846E0
:10389000C900383004F04CFE28462249683004F054
:1038A000DFFD284620497C3004F0DAFD28461F4918
:1038B000903004F0D5FD38461D49FC3004F0D0FDB1
:1038C00028461C49A43004F0CBFD28461A49B830DC
:1038D00004F0C6FD04F0B2FD6063284617494C3081
:1038E0000160174981601749016117494160174913
:1038F000174DC160A9688847E869804706F0A6FAB5
:10390000A674296E30468847686B80470020F8BD52
:103910000320F8BD0A20F8BDB0000020FC090020FB
:10392000094A00085154000849530008A9530008E7
:10393000ED480008A949000849490008215200083B
:10394000654C0008595100080D530008B951000892
:1039500084A10008F8B504461D4617460E460D48DA
:10396000FDF7F2F939460B48FDF7FEF9F2B22146B0
:103970000848FDF701FA0749C81FFD38FDF746F969
:10398000054C601CFCF732FC2178000208432860DB
:10399000F8BD0000780C0020740B0020FFB585B046
:1039A0000F46044607ADF02200211D480E9E06F08A
:1039B00093F81B4A1021204605F09AFD10220021A1
:1039C000684606F089F801216846017006223946EA
:1039D0006C46401C06F068F802222946E01D06F0FD
:1039E00063F80F4A6846089905F057FD1022002138
:1039F000684606F071F802216846017006223946D1
:103A0000601C06F051F802222946E01D06F04CF831
:103A1000034A3146684605F040FD09B0F0BD00009C
:103A2000840B0020F8B517460E4605461C46F022CA
:103A300000210B4806F050F8094A1021384605F0DD
:103A400057FD074A2146284605F027FD102E06D3CC
:103A500021462846024A1031103005F01EFDF8BDFF
:103A6000840B0020F0B5044687B0022004900020AB
:103A700006460190002C78D04248816BCA0701D1DC
:103A8000C80602D5012007B0F0BD002069460872C3
:103A9000014614223C4806F01FF83B4801214170C2
:103AA000384841732278002A04D0012A0AD0032A18
:103AB00026D118E001736B461A7A0126D206D20E7F
:103AC000403207E0E27B02736B461A7A0126D20687
:103AD000D20E80321A7222790192A26800920E25CB
:103AE000A78965570CE001736B461A7AE0231A43E5
:103AF0006B461A726268012600920A25278965576B
:103B000001216A46117521490691097B91751D486D
:103B100005A9007C02F065FFA84200D3054668B203
:103B2000002E1FD0174D2979002910D1694608733E
:103B300006980422007B887303A9287C02F0C9FF41
:103B4000002812D011496846007B203948703B4656
:103B500002A8009A019904F013FB0490002806D0F3
:103B60000020687104988EE7FFE703208BE7064882
:103B700021780170034801221A3001781143017045
:103B8000F0E70000B0000020440B0020E409002012
:103B9000F8B500250446002818D039492778374859
:103BA0000E463836027C3B0004F0FFFF1E1214174D
:103BB000191B1E2023252729303B394246484A4CF1
:103BC0004E50525654585A5C5E6062640320F8BDF1
:103BD000407C00E0C07820714DE00079FBE7C06CCC
:103BE00000E0006D606046E02648FBE725481030A5
:103BF000F8E7807CEFE7C07CEDE7192012E0204970
:103C00002039486C896CA160606034E01C4920391F
:103C100008467C30C96F40686160A0602BE01720C7
:103C200000E0162069460870104602F0DAFED9E777
:103C3000134820300078CEE7C868D3E70869D1E799
:103C40004869CFE78869CDE7C869CBE77078C2E7F4
:103C50004878C0E73078BEE70878BCE7806AC1E7FB
:103C6000C06ABFE7406ABDE74868BBE7087AB2E7C9
:103C7000486BB7E702252846F8BD0000B0000020D9
:103C8000C4090020A4060020F0B5002489B007462E
:103C9000002806D0934D288FC00704D0012009B01A
:103CA000F0BD0320FBE7914E3A7830462030029079
:103CB000407B03908B488C49007C130004F075FF17
:103CC0001E102124272A2D333C41F644809793A3CC
:103CD000AAADB0B3B6B9C8E4D5F9FCF6FFF2F1F677
:103CE00038796874002804D0012804D0022802D151
:103CF00002E0486B8047F2E00020687101F054FB5D
:103D0000EDE03879E870EAE038792871E7E0786822
:103D1000E864E4E078682865E1E07968002971D01A
:103D20001022734805E079680029F8D07048102205
:103D3000103005F0B9FED2E03879A874096E8847D2
:103D4000CDE03879E874CAE0397A6A46117103998E
:103D50005171062201A902F0BCFE002852D063482E
:103D6000BA682038796882644164687C022826D168
:103D7000E878002823D05F4F009702980821415629
:103D8000327A7368287C02F072F9687D3870706A44
:103D9000786002983A46407B3874E87C7874012059
:103DA000F874B87454323946287C02F05AFE002860
:103DB0007DD0B87CF16802F0D7FEF87CE8738EE025
:103DC000397A6A46117103995171062201A902F0EC
:103DD00080FE00286BD04548BB6820387A68802177
:103DE000C2670B507BE079680691012102E0796897
:103DF000069100216A46117706A901F027FF0028E5
:103E000055D06CE053E03879411E0E294FD8029905
:103E1000087064E07868F06061E0786830615EE0C6
:103E2000786870615BE07868B06158E07868F0614C
:103E300055E03A7969460A71052201A902F049FE66
:103E4000002834D06846017928483830417046E06F
:103E500039796A461171042201A902F03AFE00285C
:103E600025D068460079707039E03A7969460A7160
:103E7000082201A902F02DFE002818D06846017919
:103E80001A48383001702AE039796A4611710722E0
:103E900001A902F01EFE002809D0684600793070A2
:103EA0001DE018E011E00AE006E002E016E003245D
:103EB00015E07868A86212E07868E8620FE00B48C5
:103EC000796838304160716009E0084839793830E4
:103ED0000172317203E07868706300E002242046CA
:103EE000DDE60000B000002084A10008C409002025
:103EF000A4060020DC0A0020F0B50446022085B0AC
:103F00000090002C36D04748008FC00718D10C22F3
:103F10000021454805F0E0FD434E01207070414D01
:103F2000207808271A35002806D001285DD00228FD
:103F300066D0032850D16BE03A48018FC90602D5FC
:103F4000012005B0F0BD6168002913D0A1680029E7
:103F500010D0E16800290DD0217C00290AD06A46E2
:103F6000117330481E2203A9007C02F0B2FD002824
:103F700002D00AE00320E4E71F21684601742948C3
:103F800004A9007C02F02DFD20742878694638438E
:103F9000287020783070234E60683064A0687064A8
:103FA000E068B064207C707600203076087102F002
:103FB0009BFD307E6946401C088102A9307C01F0DF
:103FC00021FE1A49002348701A46194601A804F038
:103FD000D7F80090002806D01249002048712878B0
:103FE000F721084028700098ABE728780022384372
:103FF00028702078307011460220FCF71DFFE8E79A
:104000003070287838432870A08804F05BF9E0E726
:104010003070287838432870227BA088A16804F08B
:104020007BF9D6E7B0000020580B0020C40900201F
:10403000FEB508AF70CF6F4670C700F001F8FEBD47
:10404000FFB50D46002681B01F460124F0223146FF
:10405000294805F041FD284A1021039805F048FA47
:1040600026480A9941718771390AC171390C017268
:10407000390E41720B9981720B991F4F090AC17257
:104080000B99090C01730B99090E4173203F18E03D
:104090001A48194AC473641C1146A4B2203905F0A9
:1040A000FCF900203118019A3B5C525C401C5A40DC
:1040B0000C9B80B25A541028F4D3103D1036ADB288
:1040C000F6B2102DE4D2002D13D00B4A0B48114646
:1040D000C473203905F0E1F9002008E0019A311895
:1040E000525C3B5C5A400C9B401C5A5480B2A84224
:1040F000F4D305B0F0BD0000840B00202C0100209B
:10410000F3B52B4887B00E46427869460A710078AD
:10411000284C0876207A617A4018C5B2002E32D039
:1041200000216846017221794172206B2049039079
:1041300038394A78684602741D4F09784174183F2F
:10414000397B817420463030009006AB01AA02A969
:10415000207C01F048FD397B684681750179417505
:1041600009210175E07C002802D00A206946087503
:1041700005A9207C02F035FCC0B27070A84205D3BE
:10418000401B307006E0032009B0F0BD3070002500
:10419000257265726846042141562A46079804F044
:1041A00025FC002801D00020EEE70820ECE7000005
:1041B000FC090020B000002038B504466846054DD3
:1041C00004700B226946287C02F083FC002800D092
:1041D0002C7538BDB0000020F8B5044641794A4836
:1041E00002290FD0212919D022294BD063297BD154
:1041F0002168897864290DD00021017000290BD035
:1042000042A07DE0217901297CD121680978C90784
:10421000C90FF2E70121F0E73FA071E004F00EF9C9
:10422000014640A005F0BCFE45A005F0B9FE20689F
:10423000017851A005F0B4FE2068417856A005F041
:10424000AFFE00261AE05CA005F0AAFE0025F700EC
:104250002068C119A81C095C5EA005F0A1FE6D1CB8
:10426000EDB2082DF4D353A005F09AFE20680A376A
:10427000C15D5AA005F094FE761CF6B22068407825
:10428000B042E0D804F0DAF801465CA005F088FE00
:1042900065A005F085FE73A005F082FE002506E00E
:1042A0002068415D72A005F07BFE6D1CEDB22079A7
:1042B000A842F5D83FA005F073FE6FA005F070FE90
:1042C000002506E02068415D6FA005F069FE6D1CC9
:1042D000EDB22079A842F5D836A005F061FE6BA0BA
:1042E00005F05EFE002507E00CE02068415D6BA054
:1042F00005F056FE6D1CEDB22079A842F5D82DA030
:1043000005F04EFEF8BD0000440000204C4544205E
:104310004F4E0A0D000000004C4544204F46460A0F
:104320000D00000072656365697665642042454151
:10433000434F4E2061742025645B6D735D0A0D0050
:104340002D2D2D2D2D2D2D2D2D2D2D2D2D2D2D2D9D
:104350002D2D2D2D2D20626561636F6E206461749B
:1043600061202D2D2D2D2D2D2D2D2D2D2D2D2D2D56
:104370002D2D2D2D200A0D002D2D20626561636FDE
:104380006E20696E74657276616C5B735D203A2095
:1043900025640A0D000000002D2D207278206E7516
:1043A0006D202020202020202020202020203A20A6
:1043B00025640A0D0A0D00002D2D2D2D204555498F
:1043C00020202020202020202020202020203A20D3
:1043D000000000002D253032580000002D2D2D2D1D
:1043E00020696E74657276616C5B735D202020209D
:1043F00020203A2025640A0D0A0D000072656365CD
:104400006976656420646F776E6C696E6B20747278
:10441000616E736D697373696F6E206174202564BA
:104420005B6D735D0A0D00002D2D2D2D2D2D2D2D75
:104430002D2D2D2D2D2D2D2D2D2D2D2D2D20646F40
:10444000776E6C696E6B2064617461202D2D2D2D4B
:104450002D2D2D2D2D2D2D2D2D2D2D2D2D2D200ABC
:104460000D0000002D2D206865780A0D2D2D2000EF
:1044700025303258000000002D2D206F6374616CD0
:104480000A0D2D2D20000000256400002D2D206335
:104490006861720A0D2D2D200000000025630000C8
:1044A000F3B58DB0044601A8FCF714FD2A4D02981F
:1044B0002946FBF7FEFEFCF749F9009029460198D2
:1044C000FBF7F7FE254D2946FBF730FFFCF757F9C0
:1044D000079029460398FBF7ECFEFCF750F90546D8
:1044E000049F059EFEF7A6FD0246022060710E980D
:1044F000002101701A482368007818700798236813
:10450000000A587023680798987000982368001272
:10451000D8702368009818712368280A5871236896
:104520009D712068C2712268381410722268381296
:1045300050722068877222683014D072226830125C
:10454000107320684673206881732068C17310203F
:1045500020710FB0F0BD00000000C84200002041F3
:1045600044000020EFF3108172B6034A136803433E
:1045700081F310881360704790010020EFF31081E1
:1045800072B6034A1368834381F31088136070473F
:104590009001002001480068704700009001002051
:1045A00010B507480068002802D0FEF783FC10BD54
:1045B000FEF786FCFEF7A0FCFEF76CFF10BD0000C6
:1045C00090010020FF220132811A90420CD009DCB8
:1045D00008280DD008DC012808D0022806D00428BD
:1045E00002D105E00F221202072070470520704714
:1045F0000620704701490120487070477400002070
:10460000F0B541788DB0002927D1904C2278012A4D
:1046100002D1A189491CA181417B01291DD18C4D69
:10462000C1782F46243701263B680093E02916D035
:104630007971027B3A718168184605F035FA28696C
:10464000016938468847787921287DD022287CD096
:104650002878072801D104F039FA0DB0F0BD022105
:10466000002A0ED082687A4B127862705B680B93D6
:10467000130004F09AFA082837393B3E5055750567
:10468000EBE7027B042AE8D180680278012AE4D1B2
:104690004278012AE1D18278012ADED1C07801284E
:1046A000DBD10020A870E0227A713971A081A0735B
:1046B000E073207426706670684601700671FFF71B
:1046C000E3FA00200BE00020A081207008A8017010
:1046D0000B98417A08A80171FFF7D6FA0120FFF77D
:1046E0006BFDBAE73971B8E7AE7068E00020A870DA
:1046F00065E0017B3971009904220A70012106E00E
:1047000082683B68525C521C5A54491CC9B23A79BF
:104710008A42F5D8A1E768460670FFF7EDFB9CE7F3
:104720000026A6812670684601750B98417A684676
:10473000017605A8FFF7A8FA6846067044481430C9
:1047400001900830029001E03BE006E01030039059
:10475000032168460174FFF7CFFB052028707CE732
:10476000027B032A02D0072A0CD028E06A46117087
:104770008068817842780802104340BA6A46908087
:1047800068461AE0032269460A7081688A784B7885
:10479000110219434ABA69468A808168CA780B793E
:1047A00012041B0249791A430A4364214A430292C4
:1047B00080686946807908736846FFF79DFB6670DC
:1047C0004BE738687D210078C9004843C0B2E870E3
:1047D0002978072909D11F4941181C482C3803F0B2
:1047E000A7FE1A482C3803F0B5FE1948184A80680D
:1047F000143284460024104610300668757809E0AB
:10480000E000801C331800215F5C505C874207D0B9
:10481000641CE4B2A542F3D80D49052008701CE7DA
:10482000491CC9B20829EFD3604603F00DFE0849C0
:1048300024310A68E1000A31515C7D22D2005143E3
:10484000081A0549401803F007FCE5E79006002028
:104850007400002090E8FFFF8813000010B5017875
:104860000E4A0123002902D0012914D107E0407823
:10487000002801D013700EE0022010700BE0417888
:10488000002908D106490C78012C04D18B73047AD5
:10489000CC73407A0874537010BD0000740000207F
:1048A00090060020704700008307FF22DB0E9A402D
:1048B0008907090E994000280BDA0007000F083815
:1048C000830808489B001818C36993430B43C361CE
:1048D0007047830804489B001B18186890430843DE
:1048E0001860704700ED00E000E400E010B50B48F0
:1048F00003F068FE0A484179002905D0012181733F
:10490000816B042291438163407C022805D10448D5
:1049100010221A3001781143017010BD180B0020CD
:10492000B00000200EB50120694608706846FFF708
:104930002FF9002804D103490620087003F07EFBFC
:104940000EBD00007400002070B5144803F03AFE5C
:10495000134C0021114DE173607D503528700F48D4
:10496000D0384278EA70407B2874E07C6874A9747F
:10497000E974607C022802D10A48806B8047074AAC
:10498000207C7C3211462C3902F06BF80348F03859
:10499000C168A87C02F0E8F870BD0000B40A0020ED
:1049A000B000002084A1000870B5144803F00AFE8E
:1049B000134C0021114DE173607D503528700F4874
:1049C000BC384278EA70407B2874E07C6874A97433
:1049D000E974607C022802D10A48806B8047074A4C
:1049E000207C90321146403902F03BF80348DC3815
:1049F000C168A87C02F0B8F870BD0000A00A0020D1
:104A0000B000002084A10008F8B50027864803F014
:104A1000D9FD864D864C2878C10672D5A16B4A0611
:104A200004D54022914349084900A1630207814906
:104A30000026002A01DBC20711D07E4A143A5378BF
:104A4000022B02D04B78022B09D1A36B5B085B00D1
:104A5000A3632672637B5371167101279660627996
:104A60003A43714F503F002A31D1020702D4C107A7
:104A700003D12CE00A78002A06D03978A27A914234
:104A80000ED9810712D41DE0227E8A72497800294E
:104A900003D0617E8A4210D214E0A662A6720CE0B6
:104AA000800703D42672206B401C2063A6726078B6
:104AB000002802D1A06A401CA062A06B4008400000
:104AC000A06304E0EF210840287000F0C1FC2878C2
:104AD000800717D5574814380179012903D0617B25
:104AE000227B91420ED9A67366716178002902D1AA
:104AF000A16A491CA162617B4171A06B4008400022
:104B0000A0634FE0A07B00284CD0208FC00649D482
:104B1000A673607B217B884231D208282FD8401CA5
:104B20006073C0070DD0202168460170397B3E4F6D
:104B30008170703F797841706946207C01F051FFA7
:104B4000787003F095FA002814D03A4809211438F7
:104B500041702672A16B49084900A1636671067114
:104B6000617B4171304970394978817060780028E3
:104B700015D017E02878EF210840287012E00121B5
:104B8000207C01F038FFA06B40084000A06329485A
:104B90002672667114380671617B4171E6E7A06A7E
:104BA000401CA062A06B810702D502218843A0634C
:104BB00000280ED07D21C9001B4803F0B9FC1A481B
:104BC00003F0C8FC287880072DD5607C02281CD013
:104BD0001DE02878C00708D0E06D0168154814383A
:104BE000884728784008400028702878000707D5B3
:104BF000E06D81680F4888472878F72108402870C1
:104C00002878EF2108402870DCE700F0CDFB2878F9
:104C1000400704D4E06D416806482C38884728785E
:104C2000F92108402870F8BD340A0020CA0000208D
:104C3000B0000020580B002010B5084803F0C2FC5B
:104C4000074C0648E17803F073FC044803F082FC4B
:104C500003F0F4FBA060FFF765FE10BD64060020C2
:104C600074000020FFB50446002097B00D460146B1
:104C700011900A9006460890F848079010300F905F
:104C8000002013901290F64801711838C2811A9AC8
:104C90000274F44AD27B4274C170817041718160A8
:104CA00001734173817441610170EF48406B80472B
:104CB000EB48B83803F086FC207869460870291F55
:104CC00040096A1E1091D1B21490E84F029103007E
:104CD00003F06BFF08FE05FE7CFE7CFDFCFEE14858
:104CE000C178002904D0DE49012018394870B1E0AC
:104CF000DC4891B2DE4E826C731C601CFEF792FEA3
:104D000068460078307010980AAB81B2D548826C42
:104D10003046FEF71FFE70192038427F017F1202D5
:104D20000A43817FC07F09041143000608430A99A2
:104D3000884246D1C948CB4C10300090C74BE28B1B
:104D4000711CA06CFEF72AFE7079317900020843CD
:104D5000B17909040143E164307AF1790002084332
:104D6000717A09040143B07A000608432065F07A9D
:104D70004106490F00077970000F3872307BBD4E35
:104D80000007000F306101D1012030617D21C90091
:104D90004843306140187061B548113D0D300490B2
:104DA0006846057504A9207C00F035FFAC49002059
:104DB000143148700120E070AC48183040787070B1
:104DC000B3E1A748072114304170AEE1797B684612
:104DD0008173A348A34F18380179684641730921AC
:104DE0000173F87C002802D00A206946087303A9E1
:104DF000387C01F0F6FD29460D3909B2002900DAA8
:104E00000021814200D96EE7A17860780902014350
:104E1000E078944A00040843217909060143069189
:104E2000126D052091428F4918D04E6A0CE032680D
:104E300006998A4207D101211391311D0791103142
:104E40000F91776A0BE0B66A002EF0D10B218448EF
:104E50001838417000F0AAFC1BB0F0BDCF6A225C8C
:104E600069460A70401C0C92235C401C205C0102C5
:104E70001007000F08300B90601919432038037F8A
:104E8000089A1343427F12021A43837FC07F1B0498
:104E90001343000618430890C81B80B20122D203B6
:104EA0000AA90E90904216D23F1801200197009057
:104EB00002911098069B81B22046079AFEF7E4FB08
:104EC0000A99089888421ED1012002E00FE103E10F
:104ED00025E1129017E000B2012238181204801860
:104EE00015900190029110980122009281B2204603
:104EF000069B079AFEF7C8FB0A990898884202D1D8
:104F00000120159F1290112168460173554803A98D
:104F1000007C01F066FD0E99884205D850480A21B0
:104F200018384170476195E71298002876D04C49AF
:104F3000002018394870139A8A700C9A484BD20690
:104F4000D20F4A71886008734F61464958700863F0
:104F50004872139800280CD01846022118380170A6
:104F6000716AB94203D1002901D0082171E7776243
:104F70000FE01498052811D03A49394800228A7167
:104F800018380270C96AB94201D10029EDD13548FB
:104F9000C7623348007801280ED010E03148304A0B
:104FA00001218171183A1170C06AB842EFD100280E
:104FB000EDD001201190EAE70C98800602D529492E
:104FC000002008720B98281A001F002854DD0B9E41
:104FD0000B98761CA91B091F205CC9B208912049B7
:104FE0001839C87000280C9819D0000707D01A98F3
:104FF0000821C3B2701EC2B2204600F02DFC012071
:1050000000901B4D01970295A019069B0F9A0899D5
:10501000FFF70EF81198002817D04FE05AE000076C
:1050200002D00120119049E011480121029001971E
:105030000091A019069B079A0899FEF7F9FF1A98A4
:105040000021C3B20A48089A1EE005481838856056
:1050500008990173012141731BE00000A4060020A0
:10506000440B0020B000002084A10008E4090020C7
:10507000C3070020C40900200C98000706D01A9826
:105080000821C3B220460B9A00F0E6FB11980028D5
:1050900014D10C98800605D52B49012008711839C8
:1050A000887407E02848002101712848417B007B73
:1050B000814203D924482C3803F084FA2349022280
:1050C0001A3108781043FB221040119A92001043C5
:1050D00008702AE00C21BAE6611C2A461C4804F03C
:1050E000E3FC1948032118380170212109E0611CF3
:1050F0002A46174804F0D8FC1348032118380170D9
:105100002221C1700021417011498160029901730F
:105110000E4802221A3001781143017005E00A4955
:1051200001201839487000F041FB084810221A305D
:105130000178114301700121064803F0F9F905488F
:1051400003F008FA88E60000440B0020B0000020BD
:10515000C3070020340A002070B5144C607C02287C
:1051600003D01348406B804701E000F01DF911485F
:105170000E4DE27B01461A35102614316379002A60
:1051800005D00622002B00D042704A700AE00522AA
:10519000002B00D042704A70606D03F055F9A16E8B
:1051A000884202D328783043287070BDB0000020B8
:1051B00084A10008440B002070B5164C607C0228C6
:1051C00003D01548406B804701E000F0EDF813482C
:1051D000104DE27B01461A35102614316379002AFE
:1051E00008D00422002B00D042704A70607C022854
:1051F0000BD170BD0322002B00D042704A70606D4D
:1052000003F022F9A16E8842F3D328783043287046
:1052100070BD0000B000002084A10008440B0020F5
:10522000FEB503F00BF9364C0646607C022803D02D
:105230003448406B804701E000F0B6F8304DA0786C
:105240001A35002700282AD02F48616E03F070F924
:105250002D4803F07FF9607C02280ED02A48A16E09
:10526000143003F065F92848143003F073F9607CBA
:10527000022802D06079002820D0122069460872E6
:1052800002A9207C01F0ADFBA16E41181E48A030A0
:1052900003F04EF91C48A03003F05CF90EE01A4808
:1052A0000421CC304770143041702878002801D197
:1052B00001202870C0B21021084328702878000708
:1052C00004D51148E0300078002815D0E775607DDE
:1052D000A07569460870E07848700196207C01F05E
:1052E000D4FB66656079002805D10748CC3047704B
:1052F000A07A401CA072FEBD0120E075E7E7000027
:10530000B000002084A10008780A002010B50B48E6
:10531000407C022803D00A48406B804701E000F03F
:1053200043F808490220487014314870034810229D
:105330001A3001781143017010BD0000B000002048
:1053400084A10008440B002070B5144803F03AF91A
:10535000134C0021114DE173607D503528702846B3
:10536000E4384278EA70407B2874E07C6874A97461
:10537000E974607C022802D10A48806B8047074AA2
:10538000207CB8321146683901F06BFB0348B43811
:10539000C168A87C01F0E8FB70BD0000780A00201D
:1053A000B000002084A1000870B5144803F00AF989
:1053B000134C124D114E607D50352870C83E706AF6
:1053C00068602846F838407B2874E07C68740120C7
:1053D000E874617C022900D00020084AA874A43235
:1053E00011465439207C01F03CFB002805D0A87CF4
:1053F000F16801F0B9FBE87CE07370BD8C0A002015
:10540000B00000203EB5012468460470FEF7C0FBE2
:105410000D490A78062A09D0072A07D0002804D1A6
:105420006846007901280AD00C703EBD7D21C90074
:10543000064803F07DF8054803F08CF83EBD0320D4
:1054400008704C703EBD0000740000205006002023
:105450001FB5194803F0B6F8184C1021A06B88430B
:10546000A06320461A300078000721D51248F43096
:10547000007800281CD101F037FB207E6946401CD3
:10548000888103A9207C00F0BDFB0B49A03948703E
:1054900000206946087121790246C9010A4369461C
:1054A0000A7203460246009002A901A800F03EF8E5
:1054B00002F0DEFD1FBD0000640A0020B0000020E5
:1054C00010B5034803F07EF8FFF79CFF10BD000005
:1054D00050060020F0B5064600242046002E01D0DC
:1054E000002A1ED10020F0BD355DAF1E3B0003F049
:1054F0005CFB091614160612140E16061600641C20
:105500001554E4B2401CC0B2335D135400E015548E
:10551000401CC0B203E0A41C00E0641CE4B2641CA4
:10552000E4B28C42E0D3F0BD70470000F0B50C4609
:1055300087B08446002198480C9D069181831E1EE9
:105540001746417100D10025EAB202706146934DC1
:10555000097829700121009161460978490908D02C
:1055600002293FD004293BD007297DD0022007B073
:10557000F0BD009904468183681C0822616C04F028
:105580009EFAA08B0822083080B2A0832818216CD4
:1055900004F095FAA08B0830A0838148C069804749
:1055A0000146E083A08B06AB2954401C80B2090A57
:1055B0002954401CA083C1B27848A26CFEF7CAF9F6
:1055C000A08B06992954401C80B20A0A2A54401C18
:1055D00080B20A0C2A54401C80B2090E2954D7E02C
:1055E00001214171C178002969D0012269460A73FD
:1055F00021786948CA0969464A736A4A006B04906F
:10560000507808751078487510462030007B8875F2
:105610006148134630300090303803A9007C521C9A
:1056200000F0E1FA81012078BF22104008435A4976
:1056300020708979002905D0574A002191712021D5
:10564000084320705448016D54480A0A4170827022
:105650000A0CC270090E0171217841714E49098D01
:105660008171090AC17100E088E04B49FF30097A75
:10567000FF304018484908254A7A4A49823904F0DF
:1056800013FA4548017A407A0818C1B24248002E00
:1056900001721FD00278002A1CD0C279002A22D0C1
:1056A0000F291DD820783D4A030940181B01000727
:1056B000000F03432370537100203B4C07E0072089
:1056C00055E7235C53556D1C401CEDB280B28842F7
:1056D000F7D308E03048002905D0C279002A02D06B
:1056E000314E017000272C4C00202F4AE07180328F
:1056F0002D48FFF7EFFE6072002801D00120E07115
:10570000002E14D02178002911D0244847556D1C53
:10571000EDB2002F27D0A36A002240190092019316
:1057200002901E4A236D103A3046FEF789FC20781D
:1057300006AB2918A18300206E46A26A0DC6174A3F
:105740001648203A236DFDF79FFF144AA18B069857
:105750005054030A52185370030C000E9370D0700B
:10576000091DA18316E000222272A36A401900924B
:105770000A4A01930290203A236DD5E7002B09D005
:105780000446002A06D0681C314604F08DF92078C2
:10579000401CA0830020EAE6B0000020C4060020E0
:1057A00084A10008C4090020C208002010B50C48DC
:1057B0004022816B114381634079002801D0FFF7BB
:1057C00095F8074912221A31087810430870012110
:1057D000044802F0ADFE034802F0BCFE10BD00001C
:1057E000B0000020340A002030B4194801780129A3
:1057F00008D0184817490069891CC268084630BC9F
:10580000223010471349847B243101230A68012C7C
:1058100007D04478012C11D0042C00D1437030BC47
:1058200070470024847303240C71052414700C68E1
:10583000C27B62700968027C8A70EFE702230B71F9
:1058400083891B0A13700968007B4870E7E7000032
:105850009006002074000020FFB505468BB0A848D4
:1058600016460C46099024E1285D641C801EE4B2B3
:10587000030003F09AF90906115E6AA1AED6EFEDB6
:10588000EC00A04900204870285D0872641CE0B25A
:105890002A5C4A72401C4AE000206946087708A941
:1058A00008706946087208732819401E0490301B5E
:1058B000401C08759448924F02798A750999203FD7
:1058C0000A7B69464A757A78CA753A780A760999E0
:1058D00008AB0A7869464A7603AA02A901920091A8
:1058E00007AA04A9007C01F093F80090C043400788
:1058F00009D16846007F787008A80078387068463B
:10590000017A09980170002706E00022032000991F
:10591000FBF792FA7F1CFFB268460521007BFAF77D
:10592000E7FBB842F1D86846007B2018401EC4B29D
:10593000BFE0285D7449641C0122C87282400A8459
:105940000022E4B211460420B1E0285D4006410F78
:1059500068464170285D641C0107090F68460170A4
:10596000E0B2295C401CC0B201912A5C401C1202CA
:105970001143C0B201912A5C401C12041143C4B20D
:1059800008466421484301905F486946007C01F065
:1059900073F80146C84340070BD16846027809985E
:1059A00002725748019A2038426268464278099844
:1059B0004270002205207AE05348FF21006E002843
:1059C00004D00068002801D08047014606200E9AC6
:1059D0006DE0285D69460874641CE0B20391295C9F
:1059E000401CC0B200912A5C401C12021143C0B29C
:1059F00000912A5C401C120411436422514300911F
:105A000000210191C0B22A5C401C6946C4B20A72EE
:105A10003D4803A9007C01F00CF800220146072054
:105A200045E0285D641C0007000FE4B2002800D1A7
:105A300001207D21C900484331497D222039D2000F
:105A40000861801800224861114608202FE033E0E9
:105A500034E0FFE7285D00216A46641C1170517034
:105A6000E4B2810601D501215170C10601D50121A1
:105A700011700007000F907023481146007C01F060
:105A80001FF8401C15D068460178099801736846D4
:105A9000417809984173684680781C49085CFAF798
:105AA0002BFE174900222039086311460920FBF715
:105AB000C3F9B44200D2D7E60FB0F0BD285D694605
:105AC0000870641CE0B2295C401CC0B201912A5CE1
:105AD000401C12021143C0B201912A5C401C120406
